:100000000C94E0000C9408010C9408010C94080175
:100010000C9408010C9408010C9408010C9408013C
:100020000C9408010C9408010C9408010C9408012C
:100030000C9408010C9408010C9408010C9408011C
:100040000C94D3190C9408010C94431A0C941D1AA7
:100050000C9408010C9408010C9408010C940801FC
:100060000C9408010C94080100407A10F35A00A087
:10007000724E18090010A5D4E80000E87648170071
:1000800000E40B54020000CA9A3B000000E1F505B1
:10009000000080969800000040420F000000A086FB
:1000A00001000000102700000000E803000000002D
:1000B0006400000000000A000000000001000000D1
:1000C00000002C76D888DC674F0823DFC1DFAE59EB
:1000D000E1B1B796E5E3E453C63AE651997696E87E
:1000E000E6C28426EB898C9B62ED407C6FFCEFBC02
:1000F0009C9F40F2BAA56FA5F490055A2AF75C932D
:100100006B6CF9676DC11BFCE0E40D47FEF520E662
:10011000B500D0ED902E0300943577050080841E45
:10012000080000204E0A000000C80C333333330FA0
:10013000986E12831141EF8D2114893BE65516CF3D
:10014000FEE6DB18D1844B381BF77C1D901DA4BB49
:10015000E424203284725E228100C9F124ECA1E5FE
:100160003D2700000000240027002A0000000000B6
:10017000250028002B0000000008000201000003F9
:100180000407000000000000000000000000230041
:1001900026002900040404040404040402020202E8
:1001A000020203030303030301020408102040803A
:1001B000010204081020010204081020751A0B2106
:1001C00011241FBECFEFD8E0DEBFCDBF13E0A0E00B
:1001D000B1E0E2E8F1E502C005900D92A63BB1075F
:1001E000D9F725E0A6EBB3E001C01D92AF34B2070A
:1001F000E1F710E0CFEDD0E004C02197FE010E94AE
:10020000A826CE3DD107C9F70E94361B0C94B4280E
:100210000C9400008CBD9DBD089520E3FC0120835B
:100220003296862F82958F706F706A3030F4605DE1
:100230006293682F8111F5CF0895695CF9CFFC01B5
:10024000818D928D08950895CF92DF92EF92FF9263
:10025000CF93DF93B0913905A0E08111AB2F80914E
:100260003A0590E0880F991FAC0146575E4FC09049
:100270003F05D0904005E0904105F090420530E008
:1002800020E0FA01C591D491E881B90190E080E0C5
:10029000EB23EA130AC02F5F3F4F6C157D058E05D7
:1002A0009F0578F36FEF7FEFCB01DF91CF91FF9048
:1002B000EF90DF90CF90089590E0FC01EA58FE4F58
:1002C0002491FC01E855FE4F3491FC01EC56FE4FA1
:1002D000E491EE23C9F0222339F0233001F1A8F490
:1002E000213019F1223029F1F0E0EE0FFF1FE4591F
:1002F000FE4FA591B4918FB7F894EC91611126C08F
:1003000030953E233C938FBF08952730A9F02830C5
:10031000C9F0243049F7809180008F7D03C080911F
:1003200080008F7780938000DFCF84B58F7784BD86
:10033000DBCF84B58F7DFBCF8091B0008F7780932A
:10034000B000D2CF8091B0008F7DF9CF3E2BDACFB5
:10035000CF93DF9390E0FC01E855FE4F24918C563B
:100360009E4FFC0184918823D1F090E0880F991F63
:10037000FC01EE59FE4FA591B491FC01E459FE4FEA
:10038000C591D491623071F49FB7F8943C91822F5B
:10039000809583238C93E8812E2B28839FBFDF9148
:1003A000CF9108958FB7F894EC912E2B2C938FBF9B
:1003B000F6CF8E50806480937C0080917A008064B8
:1003C00080937A0080917A0086FDFCCF809178003E
:1003D0009091790008953FB7F89480912904909105
:1003E0002A04A0912B04B0912C0426B5A89B05C02B
:1003F0002F3F19F00196A11DB11D3FBFBA2FA92FA4
:10040000982F8827BC01CD01620F711D811D911DA0
:1004100042E0660F771F881F991F4A95D1F708950C
:100420008F929F92AF92BF92CF92DF92EF92FF9204
:100430004B015C010E94EB016B017C010E94EB010E
:100440006C197D098E099F09683E734081059105ED
:10045000A8F321E0821A9108A108B10888EEC80E1D
:1004600083E0D81EE11CF11C81149104A104B104A5
:1004700029F7FF90EF90DF90CF90BF90AF909F90C3
:100480008F9008952FB7F8946091250470912604F9
:1004900080912704909128042FBF0895CF92DF9276
:1004A000EF92FF920F931F93CF93DF93CDB7DEB7F9
:1004B000C054D1400FB6F894DEBF0FBECDBF0E942E
:1004C000420200913B0510913C0520913D05309181
:1004D0003E056B017C01C01AD10AE20AF30A9701BA
:1004E0008601003D17402105310590F480914305B8
:1004F000C05CDE4F0FB6F894DEBF0FBECDBFDF91FC
:10050000CF911F910F91FF90EF90DF90CF900895C2
:1005100060933B0570933C0580933D0590933E05A9
:10052000109236051092350510923405109233055D
:100530001092320562E0809137050E94A80161E0C7
:1005400070E080E090E00E94100261E08091370549
:100550000E94A80160E0809137050E945C018091B3
:1005600038058551823020F58BE291E10197F1F752
:1005700062E0809137050E94A8018091440590E0D7
:100580008230910538F0880F991F880F991F0597C1
:100590000197F1F7F89480E00E9424016F3F7F4FAC
:1005A0008F4F9F4F61F410924305789480E0A0CF65
:1005B00064E170E080E090E00E941002D9CF81E019
:1005C0000E9424016F3F7F4F8F4F9F4F61F38E0139
:1005D0000F5F1F4F6E012FEBC21A2EEFD20A780168
:1005E00080E00E942401F7016083718382839383FA
:1005F00081E00E942401F7016483758386839783D9
:10060000F8E0EF0EF11CEC14FD0451F7789430E0A3
:1006100020E0F801C080D180E280F38044815581E0
:1006200066817781FFEFCF16DF06EF06FF0631F018
:100630004F3F8FEF58076807780719F4109243056A
:10064000B5CFF90183E0F595E7958A95E1F7EE5C82
:10065000FA4F8081880FC416D506E606F70610F11A
:1006600080832F5F3F4F085F1F4F2832310589F687
:10067000409136052091320580913305280F3327AC
:10068000331F80913405280F311D80913505820F6D
:10069000932F911D99274817190681F681E08093C1
:1006A000430526CF8160DCCFAF92BF92CF92DF921D
:1006B000EF92FF920F931F93CF93DF936C017B0117
:1006C0008B01040F151FEB015E01AE18BF08C017A8
:1006D000D10759F06991D601ED91FC910190F0811B
:1006E000E02DC6010995892B79F7C501DF91CF91DE
:1006F0001F910F91FF90EF90DF90CF90BF90AF9040
:100700000895FC01538D448D252F30E0842F90E017
:10071000821B930B541710F0CF96089501970895FC
:10072000FC01918D828D981761F0A28DAE0FBF2FC5
:10073000B11D5D968C91928D9F5F9F73928F90E01B
:1007400008958FEF9FEF0895FC01918D828D98178A
:1007500031F0828DE80FF11D858D90E008958FEFC7
:100760009FEF0895FC01918D228D892F90E0805C90
:100770009F4F821B91098F73992708958AE494E013
:100780000E94B20321E0892B09F420E0822F089512
:1007900080E090E0892B29F00E94BE0381110C9427
:1007A00000000895FC01A48DA80FB92FB11DA35A14
:1007B000BF4F2C91848D90E001968F739927848F81
:1007C000A689B7892C93A089B1898C9183708064A4
:1007D0008C93938D848D981306C00288F389E02D45
:1007E00080818F7D80830895EF92FF920F931F93F6
:1007F000CF93DF93EC0181E0888F9B8D8C8D9813D4
:100800001AC0E889F989808185FF15C09FB7F894DF
:10081000EE89FF896083E889F9898081837080642B
:1008200080839FBF81E090E0DF91CF911F910F9176
:10083000FF90EF900895F62E0B8D10E00F5F1F4F85
:100840000F731127E02E8C8D8E110CC00FB607FC94
:10085000FACFE889F989808185FFF5CFCE010E9422
:10086000D203F1CFEB8DEC0FFD2FF11DE35AFF4FBB
:10087000F0829FB7F8940B8FEA89FB8980818062B0
:10088000CFCFCF93DF93EC01888D8823B9F0AA896D
:10089000BB89E889F9898C9185FD03C0808186FD3B
:1008A0000DC00FB607FCF7CF8C9185FFF2CF80818A
:1008B00085FFEDCFCE010E94D203E9CFDF91CF912A
:1008C0000895FC0120812EBD9B012150310941F08A
:1008D00051810DB407FEFDCF4EB55EBD4193F5CFFE
:1008E00061507109860F971F0DB407FEFDCF2EB51D
:1008F000FC0120830895E091B703F091B803808153
:100900009091B603892B80830895E091B703F0910D
:10091000B80390818091B6038095892380830895E0
:100920008EBD00000DB407FEFDCF8EB50895AF92C9
:10093000BF92CF92DF92EF92FF920F931F93CF93CC
:10094000DF93CDB7DEB728970FB6F894DEBF0FBEA2
:10095000CDBF8C017B016A01809149048333E1F4AE
:100960005801A40EB51EA016B10609F46FC00E946E
:10097000850480EF0E949004812F0E949004802FB4
:100980000E9490040F5F1F4FF70181917F010E9429
:1009900090040E947B04E7CF5B01A40EB51E843354
:1009A000C1F40E94850419830A838D2D80688B838E
:1009B000CC8264E070E0CE0101960E946104AE1426
:1009C000BF0409F441C0F70181917F010E949004A6
:1009D000F6CF0E9485040F3F110509F028F4198213
:1009E0000A8384E08B830CC017FD17C019820A8329
:1009F00033E0169507953A95E1F7007E0C600B837E
:100A000086E0C816D104A0F5F701DE011496EA15B8
:100A1000FB0599F081918D93FACFC80126E0969558
:100A200087952A95E1F7807E19830A830115104C7A
:100A300010F48461D7CF8C61D5CFB6016D5F7F4F45
:100A4000CE0101960E9461040E947B04C601289693
:100A50000FB6F894DEBF0FBECDBFDF91CF911F91CF
:100A60000F91FF90EF90DF90CF90BF90AF900895DF
:100A700063E070E0CE0101960E946104F70181916C
:100A80007F010E949004AE14BF04C1F7DDCFCF9365
:100A9000DF931F92CDB7DEB7898341E050E0BE01FE
:100AA0006F5F7F4F90E080E00E9497040F90DF918E
:100AB000CF91089590E020914904233339F40C96A6
:100AC000982F990F990F990F80E008954896F8CFC5
:100AD000DA01E091BA03F0E0FE2FEE27E60FF71FF0
:100AE00090E0982F8827A901BD018E0F9F1F0C94BD
:100AF0009704CF93DF9300D0CDB7DEB779836A83B5
:100B000022E030E0AE014F5F5F4F60E170E00E9495
:100B100068050F900F90DF91CF910895CF93DF93E9
:100B200000D0CDB7DEB779836A8322E030E0AE0132
:100B30004F5F5F4F64E070E00E9468050F900F9078
:100B4000DF91CF910895CF93DF931F92CDB7DEB79A
:100B50002091BA0330E0322F2227260F371F90E072
:100B6000982F8827498341E050E0BE016F5F7F4F97
:100B7000820F931F0E9497040F90DF91CF910895E9
:100B8000CF93DF931F92CDB7DEB76983DC01ED9180
:100B9000FC910280F381E02D41E050E0BE016F5FE7
:100BA0007F4F09950F90DF91CF910895FC019485B7
:100BB000FB018485981303C081E0943008F080E045
:100BC0000895CF93DF931F92CDB7DEB76983DC0121
:100BD000ED91FC910280F381E02D41E050E0BE01F7
:100BE0006F5F7F4F09950F90DF91CF910895089522
:100BF000FF920F931F93CF93DF93EB01FC01178AB2
:100C0000168A2A81211109C02B81211106C02C814D
:100C1000211103C02D81222301F141155105E9F075
:100C20008A01FC01F08C80E591E00E940A01AE018E
:100C30004E5F5F4F24E030E06CE070E08F2D0E944B
:100C40006805B8018F2D0E94790581E090E0DF9161
:100C5000CF911F910F91FF90089580E0F7CFFC0195
:100C6000848595850895FC018489958908952CE9EA
:100C700031E0FC0131832083FB0140895189628985
:100C80007389FC0142835383648375830895DC0177
:100C9000ED91FC91048CF58DE02D099490E080E0BD
:100CA0000895FC01768765870895DC01ED91FC913C
:100CB00002A0F3A1E02D099591E089270895862FE0
:100CC000089581E08627089521E0FC018485843021
:100CD00008F020E0822F08950895FB010190002084
:100CE000E9F73197AF01461B570BDC01ED91FC9101
:100CF0000280F381E02D09948F929F92AF92BF9270
:100D0000EF92FF920F931F93CF93DF93CDB7DEB790
:100D1000A1970FB6F894DEBF0FBECDBF7C01FA01DC
:100D2000CB0119A2223008F42AE08E010F5D1F4F7B
:100D3000822E912CB12CA12CBF01A50194010E94FF
:100D4000CA25F901CA016A300CF5605DD8016E93BD
:100D50008D01232B242B252B79F790E080E0109731
:100D600021F0BD01C7010E946D06A1960FB6F8944F
:100D7000DEBF0FBECDBFDF91CF911F910F91FF90CE
:100D8000EF90BF90AF909F908F900895695CDECFF9
:100D90008F929F92AF92BF92CF92DF92EF92FF928B
:100DA0000F931F93CF93DF937C01EB016C0182E0E3
:100DB000C80ED11C4701E5E08E0E911C10E000E04A
:100DC000F60141916F0150E070E060E02AE0CE0151
:100DD0000E947C065C01E881F9810190F081E02DA0
:100DE0006EE2CE0109958A0D9B1D080F191FC814CC
:100DF000D90431F7F701458150E070E060E02AE066
:100E0000CE010E947C06800F911FDF91CF911F9130
:100E10000F91FF90EF90DF90CF90BF90AF909F9099
:100E20008F9008956EE971E00C946D06CF92DF9279
:100E3000EF92FF92CF93DF936C01990FEE08FF08BA
:100E4000F7FE21C06DE28AE494E00E94F403EC0115
:100E500044275527BA014C195D096E097F092AE01C
:100E60008AE494E00E947C06C80FD91F8AE494E0CB
:100E70000E9412078C0F9D1FDF91CF91FF90EF9082
:100E8000DF90CF9008952AE0B701A6018AE494E0AC
:100E90000E947C06EC01EACF4F925F926F927F92A4
:100EA0008F929F92AF92BF92CF92DF92EF92FF927A
:100EB0006B017C01AC019B010E949C2661EA71E000
:100EC00081111AC046015701E894B7F82FEF3FEFA0
:100ED0004FE75FE7C501B4010E949C26811124C041
:100EE0002FEF3FEF4FE75FE7C501B4010E943D24BC
:100EF0001816D4F465EA71E08AE494E00E946D0665
:100F00007C018AE494E00E9412078E0D9F1DFF90E1
:100F1000EF90DF90CF90BF90AF909F908F907F9099
:100F20006F905F904F9008952FEF3FEF4FE75FE492
:100F3000C701B6010E94972618161CF469EA71E0F1
:100F4000DBCF2FEF3FEF4FE75FECC701B6010E9409
:100F50003D2487FDF3CF20E030E0A901C701B601B1
:100F60000E943D24B12CA12C87FF0AC06DE28AE4C7
:100F700094E00E94F4035C01F7FAF094F7F8F0941F
:100F80002AE037ED43EA5BE3C701B6010E94FC2586
:100F90002B013C010E9468266B017C010E944224C7
:100FA0009B01AC01C301B2010E94FB252B013C0156
:100FB0002AE0B701A6018AE494E00E947C067C0145
:100FC000EA0CFB1C6EE28AE494E00E94F403E80E53
:100FD000F91E20E030E040E251E4C301B2010E947A
:100FE000A3242B013C010E9468264B01B12CA12CAB
:100FF0002AE0B501A4018AE494E00E947C06E80E90
:10100000F91EC501B4010E9442249B01AC01C30139
:10101000B2010E94FB2520E030E040E251E40E9452
:10102000A3240E946826AB0170E060E02AE08AE415
:1010300094E00E947C06E80EF91E63CF0F931F9385
:10104000CF93DF93EC010E946D068C01CE010E94CC
:101050001207800F911FDF91CF911F910F9108957B
:10106000AF92BF92CF92DF92EF92FF920F931F93B6
:10107000CF93DF9300D000D0CDB7DEB78C016B01EA
:101080007A01809149048333E9F45B016801C40E5D
:10109000D51EC016D106A9F10E9485048FE00E94DA
:1010A0009004812F0E949004802F0E9490040F5F73
:1010B0001F4F80E00E949004F50181935F010E9420
:1010C0007B04E7CF843369F50E94850419830A8382
:1010D0008F2D8F778B83EC8264E070E0CE010196D8
:1010E0000E946104A70170E060E0C6010E94A6288A
:1010F000E114F10421F0B701C6010E9461040E94CD
:101100007B04C7010F900F900F900F90DF91CF914C
:101110001F910F91FF90EF90DF90CF90BF90AF9015
:1011200008950E9485040F3F110509F030F41982DB
:101130000A831B8263E070E0D1CF17FD0BC01982D8
:101140000A8333E0169507953A95E1F7007E08602B
:101150000B83F0CFC80126E0969587952A95E1F795
:10116000807E19830A830115104C18F480618B83EB
:10117000E1CF8861FCCFCF93DF931F92CDB7DEB76D
:101180002091BA0330E0322F2227260F371F90E03C
:10119000982F882741E050E0BE016F5F7F4F820F9C
:1011A000931F0E94300889810F90DF91CF9108959D
:1011B000CF93C82F462F61E070E00E94A30561E045
:1011C00070E08C2F0E94BB088111F9CFCF91089558
:1011D000CF93C82F80E591E00E940A0168E070E09B
:1011E0008C2FCF910C94D808CF93C82F80E591E035
:1011F0000E940A0160E170E08C2FCF910C94D80816
:10120000CF93DF93EC01888D843020F40E94F408A2
:1012100084E0888FDF91CF910895CF93C82F80E528
:1012200091E00E940A0163E070E08C2FCF910C9452
:10123000BB08CF93DF93EC018C858430D0F40E94FF
:101240000D09843189F0882379F0883169F021E033
:101250008C3159F4E881F9810084F185E02DCE01CB
:10126000099521E0892B09F420E0822FDF91CF91AD
:10127000089580E0FBCFCF92DF92EF92FF92CF9361
:10128000DF93EC018C85843068F40E94E8080E94AA
:1012900042026B017C018C850E940D09811109C0FD
:1012A00084E08C87DF91CF91FF90EF90DF90CF901B
:1012B000089561E070E080E090E00E9410020E94DA
:1012C0004202AB01BC014C195D096E097F098D8595
:1012D0009E85B0E0A0E0481759076A077B07D8F25F
:1012E0008C850E94F408DCCFCF93FC01C08D80E593
:1012F00091E00E940A0160E270E08C2F0E94D80801
:1013000062E070E08C2F0E94BB0884FD16C062E092
:1013100070E08C2F0E94BB0883FF0AC048E162E0A6
:1013200070E08C2F0E94A30580E090E0CF9108959B
:1013300080E591E00E940A01E3CF40E162E070E0C5
:101340008C2F0E94A30581E0F0CFCF93DF931F92F3
:10135000CDB7DEB741E050E0BE016F5F7F4F90E058
:1013600080E00E94300889810F90DF91CF9108952D
:10137000CF93DF93C4E1D0E00E94A509882361F0F8
:1013800061E070E080E090E00E9410022197A1F7F8
:1013900080E0DF91CF91089581E0FBCF1F93CF9341
:1013A000DF931F92CDB7DEB7182F80E591E00E9442
:1013B0000A01812F0E945A0527E0129FF001112493
:1013C000E35DFB4F22813381377041E050E0BE0185
:1013D0006F5F7F4F820F931F0E94300889810F90AB
:1013E000DF91CF911F910895FC01808D843040F4EE
:1013F000218D328D232B21F00E94CE0990E008959B
:101400008FEF9FEF0895CF93DF93FC012485243065
:1014100028F08FEF9FEFDF91CF910895EC010190BD
:10142000F081E02D0084F185E02D0995892B89F369
:101430008C850E94CE0990E0EECFDA01E091BA03EC
:10144000F0E0FE2FEE27E60FF71F90E0982F882799
:10145000A901BD018E0F9F1F0C9430088F929F929F
:10146000AF92BF92CF92DF92EF92FF921F93CF93F2
:10147000DF93CDB7DEB72C970FB6F894DEBF0FBE63
:10148000CDBF2091490414E0222339F16B017C0186
:1014900080E591E00E940A015E0127E0A20EB11CE6
:1014A000450110E063E070E0812F0E94BB08F40169
:1014B00081934F01882349F11F5F143099F710E0A1
:1014C000F50181915F018D31D9F08831C9F08A51E0
:1014D0008230B0F01F5F143099F7812F2C960FB631
:1014E000F894DEBF0FBECDBFDF91CF911F91FF906B
:1014F000EF90DF90CF90BF90AF909F908F90089526
:1015000060E170E0812F0E94D808A12EB12C83EEFB
:1015100093E00197F1F742E870E060E0812F0E94CC
:10152000A3054FEF62E070E0812F0E94A305B60192
:10153000C114D10491F48091180190911901019680
:101540008115F0EC9F0708F45CC09093190180931B
:1015500018016091180170911901812F0E948E0568
:1015600086E0E4E2F1E0DE01119601900D928A95A9
:10157000E1F7F70183818F778C8384818D83858167
:101580008E83A7014E5F5F4F24E030E06CE070E097
:10159000812F0E946805B601812F0E94790526E0FF
:1015A00030E0AE014F5F5F4F66E070E0812F0E9438
:1015B000680561E070E0812F0E94D80827E02A9D2D
:1015C000C0012B9D900D11249C01235D3B4F79019F
:1015D000F9011182108222E030E0AE01455F5F4FD9
:1015E00068E270E0812F0E941D0A8B859C859827F8
:1015F00089279827F70193838283168215821482A4
:101600006CCF80E090ECA1CFCF92DF92EF92FF926F
:101610000F931F93CF93DF9300D000D000D0CDB7AE
:10162000DEB78C016B017A01FC01808D843010F4EF
:101630000E94F4088CE991E09A838983F601828103
:101640009381A481B5818B839C83AD83BE83B701D5
:10165000CE0101960E942E0AF801808F8430A0F4FA
:10166000F586E486128E118E81E026960FB6F894E8
:10167000DEBF0FBECDBFDF91CF911F910F91FF90C5
:10168000EF90DF90CF90089580E0EFCFAF92BF92C0
:10169000CF92DF92EF92FF920F931F93CF93DF933E
:1016A00000D000D000D0CDB7DEB7082F6B0180E5A9
:1016B00091E00E940A019E012F5F3F4F790159017D
:1016C00010E063E070E0812F0E94BB08F501819378
:1016D0005F01882341F11F5F143099F710E0F70193
:1016E00081917F018D31D1F08831C1F08A518230F2
:1016F000A8F01F5F143099F7812F26960FB6F89443
:10170000DEBF0FBECDBFDF91CF911F910F91FF9034
:10171000EF90DF90CF90BF90AF90089560E170E0C0
:10172000812F0E94D808E12EF12C83EE93E00197DF
:10173000F1F7402F70E060E0812F0E94A3054FEF8A
:1017400062E070E0812F0E94A305B601CD2889F4E4
:10175000809118019091190101968115F0EC9F0775
:1017600098F190931901809318016091180170917C
:101770001901812F0E948E0561E070E0812F0E9487
:10178000D80827E02E9DC0012F9D900D11249C01AB
:10179000235D3B4F7901F9011182108222E030E094
:1017A000AE014B5F5F4F68E270E0812F0E941D0A1F
:1017B0008D819E81982789279827F70193838283BB
:1017C00016821582148298CF80E090ECCACFCF9217
:1017D000DF92EF92FF921F93CF93DF93EC017B0197
:1017E0006A018C85843048F40E940D09882319F021
:1017F0008C850E94E80884E08C87F70182819381C0
:10180000A481B5810097A105B10551F490E080E075
:10181000DF91CF911F91FF90EF90DF90CF900895CF
:101820008F3F9F4FAF4FBF4F89F380914904811184
:1018300003C084E08C87EACF70E060E081E20E9420
:10184000460B182F8C87843008F780E591E00E94C2
:101850000A01A7014E5F5F4F24E030E06CE070E0CA
:10186000812F0E946805B601812F0E94790564E0EE
:1018700070E0812F0E94D8080E9442026B017C0117
:101880008C850E940D09873109F18C31F9F088238C
:1018900009F4BCCF0E944202AB01BC014C195D09A6
:1018A0006E097F098D859E85B0E0A0E084179507BD
:1018B000A607B70738F061E070E080E090E00E9492
:1018C0001002DECF8C850E94F408B3CF81E090E057
:1018D0009FCF0F931F93CF93DF93EC018B01888DE4
:1018E000843010F40E94F40880914904811107C0EB
:1018F00094E0988FDF91CF911F910F910895B801D7
:1019000082E00E94460B888F843030F41D870C875C
:101910001A8E198E81E0EECF80E0ECCF7F928F920D
:101920009F92AF92BF92CF92DF92EF92FF920F936E
:101930001F93CF93DF9300D0CDB7DEB7782E8B0106
:101940004A01590122E030E0AE014F5F5F4F64E28F
:1019500070E00E941D0AE980FA80FE24EF24FE2434
:10196000E00EF11E9701377040914904072D10E0F9
:10197000433309F042C0085F1F4F102F0027110F9B
:10198000110F110FC901800F911F4733C9F1A90130
:101990004A0D5B1D4130584098F160E078E06B01E2
:1019A000C21AD30AA601B4010E949704A5014C19DA
:1019B0005D09B4016C0D7D1DC8010E949704EA0CFD
:1019C000FB1CF982EA8222E030E0AE014F5F5F4FFC
:1019D00064E270E0872D0E9468050F900F90DF9100
:1019E000CF911F910F91FF90EF90DF90CF90BF901C
:1019F000AF909F908F907F900895005F1F4FBDCF55
:101A0000A501B401DACFEF92FF921F93CF93DF933A
:101A100000D0CDB7DEB7182F22E030E0AE014F5F27
:101A20005F4F60E270E00E941D0AE980FA80FE24A8
:101A3000EF24FE2422E030E0AE014F5F5F4F60E212
:101A400070E0812F0E941D0A89819A819827892739
:101A50009827E816F90689F487E0189FF001112409
:101A6000E35DFB4FF582E482C7010F900F90DF9199
:101A7000CF911F91FF90EF9008957C01DBCF1F93D2
:101A8000CF93DF93182F80E591E00E940A01812F08
:101A90000E94030DEC0163E070E0812F0E94BB08FF
:101AA000873121F08C3111F0D0E0C0E0CE01DF9120
:101AB000CF911F910895CF93DF93EC018C858430F3
:101AC00060F40E940D09873111F08C3131F48C855E
:101AD0000E943F0D8115984088F3DF91CF910895C2
:101AE000FC018485843010F40C943F0D90E080E07C
:101AF00008959F92AF92BF92CF92DF92EF92FF92A2
:101B00000F931F93CF93DF938C015B01942EE52EEF
:101B1000FC01C688D788F08C80E591E00E940A011C
:101B20008F2D0E94030DC92DDE2D8C179D0708F403
:101B3000EC019E01A501B6018F2D0E948E0CF801CB
:101B4000868997898C0F9D1F978B868BCE01DF919D
:101B5000CF911F910F91FF90EF90DF90CF90BF90AA
:101B6000AF909F9008958F929F92AF92BF92CF9225
:101B7000DF92EF92FF920F931F93CF936C015B0163
:101B80008A01FC01C485C430F0F57A014130584027
:101B900018F0E12C88E0F82E80E591E00E940A011F
:101BA0008C2F0E94030D4C0163E070E08C2F0E948B
:101BB000BB08873111F08C3149F58E149F0460F316
:101BC00080E591E00E940A019701A50170E060E0C4
:101BD0008C2F0E948E0C60E270E08C2F0E94D8083F
:101BE00062E070E08C2F0E94BB0884FD17C063E0A8
:101BF00070E08C2F0E94BB0881110BC081E090E047
:101C0000F6019383828310E000E010C0F12CE12CF8
:101C1000D7CF80E591E00E940A01E2CF40E162E087
:101C200070E08C2F0E94A305EF2841F3C801CF91EB
:101C30001F910F91FF90EF90DF90CF90BF90AF90EA
:101C40009F908F900895FF920F931F93CF93DF93F0
:101C500000D0CDB7DEB7F82E22E030E0AE014F5F06
:101C60005F4F66E270E00E941D0A09811A81102709
:101C70000127102722E030E0AE014F5F5F4F66E2A0
:101C800070E08F2D0E941D0A89819A8198278927EB
:101C900098270817190749F4C8010F900F90DF9192
:101CA000CF911F910F91FF9008958C01E3CF1F9367
:101CB000CF93DF93182F87E0189FE0011124C35DB5
:101CC000DB4F88819981009761F480E591E00E9463
:101CD0000A01812F0E94230E2E81821B9109998374
:101CE0008883DF91CF911F910895FC018485843012
:101CF00010F40C94570E90E080E008954F925F929C
:101D00007F928F929F92AF92BF92CF92DF92EF928B
:101D1000FF920F931F93CF93DF9300D0CDB7DEB721
:101D2000782E6B014A01A82EB12C27E0829FC001BA
:101D30001124FC01E35DFB4F7F010081118180E5EF
:101D400091E00E940A010815190554F4872D0E949C
:101D5000230EF70126818C01021B110911830083D8
:101D60000115110529F563E070E0872D0E94BB087D
:101D7000843159F0882349F001E010E08C3111F4EE
:101D800010E000E0119501951109C8010F900F9026
:101D9000DF91CF911F910F91FF90EF90DF90CF9047
:101DA000BF90AF909F908F907F905F904F900895DD
:101DB000801691060CF4840187E08A9DF0018B9DCA
:101DC000F00D1124E35DFB4FE280F380C114D104D8
:101DD00051F12701F7E05F22872D0E945A05840DFB
:101DE000951D20914904273309F453C09801240D0F
:101DF000351D2130384008F44CC020E038E049015E
:101E000084189508A401B6010E9430082601480CE8
:101E1000591C6801C818D908872D0E945A05A601C7
:101E2000B2010E943008E00EF11E87E08A9DF001A9
:101E30008B9DF00D1124E35DFB4FF382E282208144
:101E40003181201B310B318320838681800F912FBC
:101E5000911D8A3F910510F4232BF1F487E08A9DB0
:101E6000F0018B9DF00D1124E35DFB4F1682F9828A
:101E7000EA8222E030E0AE014F5F5F4F68E270E03F
:101E8000872D0E94680560E470E0872D0E94D808C5
:101E90007CCFA801B601C5CF868377CFCF93DF93E0
:101EA000FC01218D328D2115310529F48FEF9FEF33
:101EB000DF91CF910895EC01808D4217530708F010
:101EC000A9010E947E0E1816190684F7298D3A8DF5
:101ED000281B390B3A8F298FEBCF0F931F93CF938A
:101EE000DF931F92CDB7DEB7FC01218D328D232BFE
:101EF00041F48FEF9FEF0F90DF91CF911F910F91E2
:101F000008958C0141E050E0BE016F5F7F4FFC01FE
:101F1000808D0E947E0E181619065CF7F801818DDF
:101F2000928D0197928F818F898190E0E4CFCF933A
:101F3000DF931F92CDB7DEB741E050E0BE016F5F87
:101F40007F4FFC0184850E947E0E1816190634F41A
:101F5000898190E00F90DF91CF9108958FEF9FEFEF
:101F6000F9CFFC018485843010F40C947E0E90E04F
:101F700080E008950F931F93CF93DF9300D0CDB7E8
:101F8000DEB7FC0124852430E0F48C0180E591E08B
:101F90000E940A0122E030E0AE014F5F5F4F60E136
:101FA00070E0F80184850E941D0A89819A81982732
:101FB000892798270F900F90DF91CF911F910F9154
:101FC000089590E080E0F6CF0F931F93CF93DF93B7
:101FD00000D0CDB7DEB7FC0124852430E0F48C01BD
:101FE00080E591E00E940A0122E030E0AE014F5FFF
:101FF0005F4F64E070E0F80184850E941D0A8981CA
:102000009A819827892798270F900F90DF91CF9179
:102010001F910F91089590E080E0F6CFDC018CE9EC
:1020200091E08D939D9384E0FB0101900D928A9540
:10203000E1F70895EF92FF920F931F93CF93DF93F1
:1020400000D000D0CDB7DEB78C017B01FB018485C9
:102050008430A8F08CE991E0F801918380831282AA
:10206000138214821582C8010F900F900F900F9069
:10207000DF91CF911F910F91FF90EF90089580E530
:1020800091E00E940A0124E030E0AE014F5F5F4F13
:102090006CE070E0F70184850E941D0ABE016F5F4D
:1020A0007F4FC8010E940E10DECF0F931F93CF9376
:1020B000DF93CDB7DEB728970FB6F894DEBF0FBE1B
:1020C000CDBF8C01D80159964D915C915A9741151D
:1020D000510551F0ED91FC91048CF58DE02D70E0EF
:1020E00060E0C8010995EECFF801808D0E94570E7F
:1020F000892BB1F148E050E0BE016F5F7F4FD801FE
:1021000058968C910E947E0E18161906F4F4D80188
:10211000509684E0FE01319601900D928A95E1F788
:102120008D8190E0982F88272E81820F911DF801D4
:10213000958B848B8F81282F30E0322F2227888542
:10214000820F932F911D928F818F28960FB6F8944E
:10215000DEBF0FBECDBFDF91CF911F910F910895CC
:1021600090E080E0F2CF4F925F926F927F928F92D9
:102170009F92AF92BF92CF92DF92EF92FF920F9316
:102180001F93CF93DF93CDB7DEB763970FB6F89465
:10219000DEBF0FBECDBF7C016B013A01FB0120E029
:1021A00090E080E06AE03191332309F461C040EDB2
:1021B000430F4A3008F04DC0689FA001699F500D41
:1021C0001124CA01C097830F911D37FD9A958F3F47
:1021D000910549F340F3F701428153816481758190
:1021E0008091130590911405A0911505B0911605E5
:1021F000481759076A077B0709F40DC28701085F72
:102200001F4F0E9442026F7077277C5FC8010E94B7
:10221000690C813009F004C28CE991E09A838983CA
:10222000F70182819381A481B5818B839C83AD83E7
:10223000BE8345E350E0BE016F5F7F4FC8010E943F
:10224000F805892BA9F5D12CC12CC8010E940009E1
:1022500017C03E3209F0BFCF233009F4BCCFD30101
:10226000A20FB11D12968C932F5F90E080E09BCF60
:10227000233009F0B0CFF3018583CC24C394D12C53
:10228000C60163960FB6F894DEBF0FBECDBFDF91D7
:10229000CF911F910F91FF90EF90DF90CF90BF9063
:1022A000AF909F908F907F906F905F904F90089528
:1022B0000E944202F7017783668342E050E0B70153
:1022C0006A5F7F4FC8010E94790D81E090E09A8398
:1022D000898342E050E0BE016F5F7F4FC8010E94DA
:1022E000790D80E091E09A83898342E050E0BE015D
:1022F0006F5F7F4FC8010E94790D1A82198242E0F8
:1023000050E0BE016F5F7F4FC8010E94790D42E02F
:1023100050E0BE016F5F7F4FC8010E94790D42E01F
:1023200050E0BE016F5F7F4FC8010E94790D5601DA
:10233000F6018081882301F16501F60181912F0169
:10234000882311F08E32B1F446018A189B081814C4
:10235000190474F48D8641E050E0BE01635F7F4F45
:10236000C8010E94790DA401B501C8010E94790D30
:102370005201DECF6201E1CF1D8641E050E0BE0197
:10238000635F7F4FC8010E94790DC12CDD24D39477
:10239000DA82C98242E050E0BE016F5F7F4FC80120
:1023A0000E94790DDA82C98242E050E0BE016F5F7F
:1023B0007F4FC8010E94790DC8010E947409892BC2
:1023C00009F441CFF3E0AF2EB12C230122E0420EFD
:1023D000511CD4C0F7014281538164817581808D85
:1023E000918DA28DB38D481759076A077B0709F0B5
:1023F00008C1848D958DC59709F003C181A192A173
:102400005DEFC52EDD24DA940C970CF4ADC04CE0E2
:1024100050E0BE016F5F7F4FC8010E944E0F8B815D
:102420009C819827892798279A8B898BF701468169
:10243000578129813A814217530709F0E7C097FF76
:10244000E5C08F7092703BEFC32EDD24DA94892BA8
:1024500009F08AC06F8078847624672476242AEF76
:10246000C22EDD24DA946114710409F47DC0D12CEC
:10247000C12C8D819E81982789279827C816D90657
:10248000F8F441E050E0BE01635F7F4FC8010E9455
:102490004E0F4D85442331F050E070E060E0C801FC
:1024A0000E944E0F8D858111ECCF44E050E070E02A
:1024B00060E0C8010E944E0FFFEFCF1ADF0AD9CFAC
:1024C000912C812C41E050E0BE016D5E7F4FC80130
:1024D0000E944E0F4B89842F807C09F06CC04423EE
:1024E00031F050E070E060E0C8010E944E0F8B892F
:1024F0008111E8CF42E050E0BE01615F7F4FC8012B
:102500000E944E0F42E050E0BE01635F7F4FC80162
:102510000E944E0F44E050E070E060E0C8010E946D
:102520004E0F42E050E0BE016F5E7F4FC8010E9437
:102530004E0F8F85988949895A898115914009F0F4
:1025400043C0CD84DE84DC24CD24DC2481E0C816A5
:10255000D104D1F54115544009F04AC044E050E09F
:10256000B201C8010E944E0F21E0A21AB10809F47D
:102570006CCEFFEFCF16DF0609F067CE0E94420255
:102580003B014C01C8010E945510181619060CF4A5
:1025900021CF0E9442026619770988099909693892
:1025A00073418105910548F562E370E080E090E0B9
:1025B0000E941002E7CF41E050E070E060E0C80107
:1025C0000E944E0F1B8A93CF54274527542770E053
:1025D00060E0C8010E944E0FFFEF8F1A9F0A681437
:1025E000790409F06FCF96EFC92EDD24DA94BCCFC1
:1025F000E7EFCE2EDD24DA94B7CFCC24CA94DC2CBE
:10260000B3CF6EEFC62EDD24DA94AECF4CEFC42EDE
:10261000DD24DA94A9CF8EEFC82EDD24DA9430CEF3
:10262000D12CC12C2DCECF92DF92EF92FF920F933F
:102630001F93CF93DF93CDB7DEB7AF970FB6F89464
:10264000DEBF0FBECDBF7C016A010CE911E01A8329
:1026500009831C861B8688EE93E0A0E0B0E08D879E
:102660009E87AF87B88B8EE291E09A878987188F13
:102670000F8B198E1A8E1B8E1C8E84E089A31BA7CC
:102680000AA71CA61DA61EA61FA68091070590914D
:102690000805A0910905B0910A058EA39FA3A8A7DC
:1026A000B9A78B839C83AD83BE8318861F82AE013E
:1026B000465D5F4FCE0101960E94B31081309105B7
:1026C000B1F4D701ED91FC910488F589E02D1DA3AB
:1026D0000CA38CA59DA5AEA5BFA58EA39FA3A8A75F
:1026E000B9A7A601BE016C5D7F4FC7010995AF96E2
:1026F0000FB6F894DEBF0FBECDBFDF91CF911F9113
:102700000F91FF90EF90DF90CF900895CF92DF92DE
:10271000EF92FF920F931F93CF93DF93CDB7DEB766
:10272000AF970FB6F894DEBF0FBECDBF8C016B0123
:102730007A018CE991E09A8389831B821C821D8235
:102740001E821C861B8648EE53E060E070E04D87D9
:102750005E876F87788B2EE231E03A872987988FE2
:102760008F8B198E1A8E1B8E1C8E24E029A39BA79B
:102770008AA71CA61DA61EA61FA6D8011C968C9172
:10278000843060F40E940D09882321F0F8018485CB
:102790000E94E80884E0D8011C968C93809107057C
:1027A00090910805A0910905B0910A058EA39FA3F9
:1027B000A8A7B9A78B839C83AD83BE8318861F828D
:1027C000AE01465D5F4FB601CE0101960E94B31087
:1027D0000097C1F0D801ED91FC910684F785E02DBA
:1027E0008CE991E09DA38CA38CA59DA5AEA5BFA56A
:1027F0008EA39FA3A8A7B9A7A701BE016C5D7F4FB9
:10280000C8010995AF960FB6F894DEBF0FBECDBFD5
:10281000DF91CF911F910F91FF90EF90DF90CF90BC
:1028200008957F928F929F92AF92BF92CF92DF9244
:10283000EF92FF920F931F93CF93DF93CDB7DEB745
:10284000A6970FB6F894DEBF0FBECDBF8C01762ED3
:10285000942E852E20E2A22ECE0101967C01DC0171
:10286000EA2D1D92EA95E9F76801F3E4CF0ED11C39
:102870008CE991E09AA389A38FEF8BA38CA38DA3FE
:102880008EA343E450E0BE016F5D7F4FC6010E94FE
:10289000F805019609F4BFC081E089838A8386E048
:1028A000B82EBB821C82D80114966D917D918D91BA
:1028B0009C9117970E94A1266D837E838F839887B2
:1028C00089869A8680E890E09C878B874CE150E06F
:1028D000B701C6010E94790DFE0137968AE1DF013A
:1028E0001D928A95E9F74801B8E08B0E911CF4011E
:1028F000D70101900D92BA94E1F740E150E0B701A1
:10290000C6010E94790DF7011192AA94E9F796E0A9
:10291000A92EB12C40E250E0B701C6010E94790D0A
:10292000F1E0AF1AB108B1F783E6898392E89A83A0
:1029300093E59B838C8385E38D8381E08E837F8207
:102940009DE3988797E099878A8786E0F401DE0106
:102950001B9601900D928A95E1F78CE0898B8A8B0A
:102960006DEA71E0CE0143960E94AD28D8011B9616
:102970006C91CE0149960E940D01F8016485CE014B
:102980004B960E940D01D8011D966C91CE014D967B
:102990000E940D014EE150E0B701C6010E94790D81
:1029A000B3E07B121EC082E3898384E08A83F8014E
:1029B00096859B8397859C8390899D8391899E832F
:1029C00096E39F838887828D8987838D8A87848D0C
:1029D0008B87858D8C874CE050E0B701C6010E9443
:1029E000790D87E3898386E08A8391E09B8393E076
:1029F0009C838D838FE08E838AE38F838BE388872C
:102A00008FEF898749E050E0B701C6010E94790D38
:102A1000C6010E947409A6960FB6F894DEBF0FBED9
:102A2000CDBFDF91CF911F910F91FF90EF90DF907D
:102A3000CF90BF90AF909F908F907F9008950F930D
:102A40001F93CF93DF93EC0188819981009759F010
:102A50002A813B812617370730F081E0DF91CF9143
:102A60001F910F9108958B016F5F7F4F0E94D327B5
:102A7000009759F0998388831B830A832C813D81B9
:102A8000232B59F7FC011082E8CF80E0E7CFEF92CB
:102A9000FF920F931F93CF93DF936115710541F45C
:102AA00080E0DF91CF911F910F91FF90EF900895FB
:102AB00041155105B1F07B01EC010C811D81040F22
:102AC000151FB8010E941F15882351F328813981F1
:102AD0008C819D81B701820F931F0E94AD281D83B9
:102AE0000C8381E0DECFFB014481558160817181DF
:102AF0000C944715CF93DF93EC018881998100975F
:102B000011F00E944A27198218821D821C821B82A2
:102B10001A82DF91CF910895CF93DF93EC01FB01EF
:102B200001900020E9F73197AF01461B570B0E9437
:102B30004715811103C0CE010E947A15CE01DF91A5
:102B4000CF910895CF93DF93EC01FB014481558130
:102B5000608171810E944715811103C0CE010E94DE
:102B60007A15CE01DF91CF910895EF92FF920F93E6
:102B70001F93CF93DF93EC017B018A01BA010E947E
:102B80001F1581110BC0CE010E947A15CE01DF9175
:102B9000CF911F910F91FF90EF9008951D830C83AB
:102BA000B701888199810E94AD28F0CFEF92FF9202
:102BB0000F931F93CF93DF93CDB7DEB762970FB616
:102BC000F894DEBF0FBECDBF8C01CB01F80111829E
:102BD000108213821282158214824AE09E012F5FB6
:102BE0003F4F7901B9010E94D121F70101900020E6
:102BF000E9F73197AF014E195F09B701C8010E948B
:102C0000B51562960FB6F894DEBF0FBECDBFDF914B
:102C1000CF911F910F91FF90EF900895EF92FF9247
:102C20000F931F93CF93DF93CDB7DEB7E3970FB624
:102C3000F894DEBF0FBECDBF7C01CB01BA01F70116
:102C40001182108213821282158214828E010F5F0C
:102C50001F4F22E044E00E940F210097C9F0FC01C1
:102C600001900020E9F73197AF01481B590BBC01D7
:102C7000C7010E94B515E3960FB6F894DEBF0FBEEC
:102C8000CDBFDF91CF911F910F91FF90EF900895ED
:102C9000C7010E947A15EFCFFC01118210821382C6
:102CA000128215821482FB0101900020E9F731970E
:102CB000AF01461B570B0C94B515FC018081918127
:102CC000009711F00C944A2708954F925F926F92EB
:102CD0007F928F929F92AF92BF92CF92DF92EF92AC
:102CE000FF920F931F93CF93DF93CDB7DEB76A9711
:102CF0000FB6F894DEBF0FBECDBF2B013C012B8B6E
:102D00003C8B4D8B5E8BEF8AF88E098F1A8F64EBAC
:102D100071E0CE010D960E944C16B301A201CE01C6
:102D200007960E940E1666EB71E0CE0101960E9496
:102D30004C16BE01695F7F4FCE0101960E94A2151D
:102D400065EC71E00E948C15BC01CE010D960E94CD
:102D50007315CE0101960E945D16CE0107960E9462
:102D60005D164B895C896D897E89CE0107960E942C
:102D70000E1667EC71E0CE0101960E944C16BE0162
:102D8000695F7F4FCE0101960E94A21565EC71E04C
:102D90000E948C15BC01CE010D960E947315CE01C8
:102DA00001960E945D16CE0107960E945D164F891E
:102DB000588D698D7A8DCE0107960E940E1663EDAF
:102DC00071E0CE0101960E944C16BE01695F7F4FF3
:102DD000CE0101960E94A21565EC71E00E948C154F
:102DE000BC01CE010D960E947315CE0101960E9482
:102DF0005D16CE0107960E945D16B601CE010796BC
:102E00000E94D6156FED71E0CE0101960E944C161E
:102E1000BE01695F7F4FCE0101960E94A21565EC4D
:102E200071E00E948C15BC01CE010D960E947315B5
:102E3000CE0101960E945D16CE0107960E945D1696
:102E4000B501CE0107960E94D6156CEE71E0CE0159
:102E500001960E944C16BE01695F7F4FCE0101961C
:102E60000E94A21565EC71E00E948C15BC01CE0198
:102E70000D960E947315CE0101960E945D16CE013B
:102E800007960E945D16B401CE0107960E94D615E2
:102E900069EF71E0CE0101960E944C16BE01695F98
:102EA0007F4FCE0101960E94A215BC01CE010D9666
:102EB0000E947315CE0101960E945D16CE01079601
:102EC0000E945D1641E050E069E072E0CE010D968F
:102ED0000E9447156BE072E08AE494E00E941E08AD
:102EE00040E550E060E071E08DE195E00E948613DE
:102EF000892B49F568E272E08AE494E00E941E089A
:102F000060E084E00E945C018DE195E00E943B0955
:102F1000CE010D960E945D166A960FB6F894DEBF3C
:102F20000FBECDBFDF91CF911F910F91FF90EF901A
:102F3000DF90CF90BF90AF909F908F907F906F90D9
:102F40005F904F90089564E472E0CE0101960E9474
:102F50004C166CE275E0CE0101960E94A21562E566
:102F600072E00E948C15FC01448155816081718161
:102F70008DE195E00E94B30D8DE195E00E9412076E
:102F8000CE0101960E945D1666E672E08DE195E045
:102F90000E941E086EE772E08DE195E00E941E0817
:102FA0006DE972E08DE195E00E941E086FEA72E023
:102FB0008DE195E00E946D0649895A8970E060E0D4
:102FC0002AE08DE195E00E947C068DE195E00E946B
:102FD00012078DE195E00E94120749895A896D8593
:102FE0007E858DE195E00E94B30D0E9442022B0187
:102FF0003C018DE195E00E94750E892B91F40E94B1
:103000004202641975098609970968387341810578
:10301000910538F46AE070E080E090E00E941002D0
:10302000E8CF60EC72E08AE494E00E941E088DE133
:1030300095E00E94750E892B51F08DE195E00E947C
:10304000970F682F8AE494E00E94F403F0CF8AE49B
:1030500094E00E9412076AED72E08AE494E00E9414
:103060001E0852CF0C944A273F924F925F926F9264
:103070007F928F929F92AF92BF92CF92DF92EF9208
:10308000FF920F931F93CF93DF93CDB7DEB7EA97ED
:103090000FB6F894DEBF0FBECDBF7C012A013B0105
:1030A00069010E9442024B015C0187010D5B1F4FC9
:1030B000C8010E945510181619069CF00E94420281
:1030C000681979098A099B09461657066806790620
:1030D00008F466C162E370E080E090E00E941002B4
:1030E000E7CF42E250E0BE016F5F7F4FC8010E9410
:1030F0004E0F89818230D1F0312C832DEA960FB6A4
:10310000F894DEBF0FBECDBFDF91CF911F910F911D
:10311000FF90EF90DF90CF90BF90AF909F908F90F7
:103120007F906F905F904F903F900895F801848951
:1031300095898334910501F76D817E818F81988512
:103140000E94A1264B015C01F60180829182A2823D
:10315000B38246E050E0B701685F7F4FCE014D96E5
:103160000E949028892B41F6F70180819181A281EC
:10317000B38188169906AA06BB0608F4BDCF8481E0
:103180009581A681B78188159905AA05BB0508F424
:10319000B3CF89899A89AB89BC8986879787A08BA9
:1031A000B18B4EEC50E070E060E0C8010E944E0F21
:1031B000312CC701829698AB8FA7F701B696FAAB70
:1031C000E9AB08969CAB8BAB67019AE1C90ED11CA9
:1031D000BD96FEABEDABC701429698AF8FABFD97A6
:1031E000FAAFE9AF4701FEE18F0E911CF801818D26
:1031F000928D181619060CF080CFC8010E946D0F31
:103200008333910509F4B2C014F58130910509F4B6
:1032100064C044F4892B51F3C8010E946D0FAC01C6
:10322000552775C08330910509F462C00697A1F750
:10323000C8010E946D0FB82E44E050E0B401C801EF
:103240000E944E0FEB2DE450FF0BAF0160C08A339C
:10325000910509F45FC084F585339105B1F1C697F6
:10326000D9F6C8010E946D0F5C01B601CE018996A6
:103270000E940E108BA59CA5ADA5BEA5892B8A2BFF
:103280008B2BB1F0EDA9FEA9408051806280738044
:10329000B601CE0183960E940E108DA19EA1AFA112
:1032A000B8A5A501481659066A067B0609F0B8CFED
:1032B00044E050E0B60118C08B33910509F440C0DA
:1032C0008F3F910509F492CFA7CFC8010E946D0FDF
:1032D000C8010E946D0F382E89CFC8010E946D0F62
:1032E00044E050E06FA978ADC8010E944E0F7ECF38
:1032F000C8010E946D0FB82E44E050E069AD7AAD70
:10330000C8010E944E0F8B2D8450990BAC0170E0C8
:1033100060E0EACFC8010E946D0F44E050E069A967
:103320007AA9C8010E944E0FF70166A177A180A576
:1033300091A50E94A12666A377A380A791A756CF47
:10334000C8010E946D0F44E050E06BA97CA9C80140
:103350000E944E0FF70162A573A584A595A50E9452
:10336000A12662A773A784A795A740CFC8010E9492
:103370006D0F44E050E06FA578A9C8010E944E0F80
:10338000F70162A173A184A195A10E94A12662A365
:1033900073A384A395A366A777A780AB91AB26CF31
:1033A00033243A94AACE1F920F920FB60F92112493
:1033B0002F933F938F939F93AF93BF938091250457
:1033C00090912604A0912704B09128043091240400
:1033D00023E0230F2D3758F50196A11DB11D209331
:1033E00024048093250490932604A0932704B0938B
:1033F00028048091290490912A04A0912B04B09173
:103400002C040196A11DB11D8093290490932A04D8
:10341000A0932B04B0932C04BF91AF919F918F91F7
:103420003F912F910F900FBE0F901F90189526E897
:10343000230F0296A11DB11DD2CF1F920F920FB67E
:103440000F9211242F933F934F935F936F937F932A
:103450008F939F93AF93BF93EF93FF938AE494E08E
:103460000E94D203FF91EF91BF91AF919F918F91F5
:103470007F916F915F914F913F912F910F900FBE70
:103480000F901F9018951F920F920FB60F92112454
:103490002F938F939F93EF93FF93E0915A04F091B2
:1034A0005B048081E0916004F091610482FD1BC0A7
:1034B0009081809163048F5F8F73209164048217E1
:1034C00041F0E0916304F0E0E65BFB4F958F809361
:1034D0006304FF91EF919F918F912F910F900FBEF9
:1034E0000F901F9018958081F4CFCF92DF92EF92CA
:1034F000FF92EAE4F4E01382128288EEC82E83E0A1
:10350000D82EE12CF12CC482D582E682F78288E5A0
:1035100091E09183808385EC90E09587848784ECAB
:1035200090E09787868780EC90E0918B808B81EC90
:1035300090E0938B828B82EC90E0958B848B86EC71
:1035400090E0978B868B118E128E138E148EE7EE81
:10355000F4E08CE991E091838083128213821482DB
:103560001582EDEEF4E0918380831282138214823F
:103570001582E3EFF4E09183808312821382148238
:103580001582E9EFF4E09183808312821382148222
:103590001582EFEFF4E0918380831282138214820C
:1035A0001582EBE0F5E0918380831282138214820E
:1035B0001582E5E0F5E09183808312821382148204
:1035C0001582E1E1F5E091838083128213821482F7
:1035D0001582E7E1F5E091838083128213821482E1
:1035E0001582E5E4F5E091838083128213821482D0
:1035F0001582A2E3B5E082E015968C93159786E1DB
:1036000016968C931697EAEAF1E0E4911796EC93FC
:103610001797E6E9F1E0E4911896EC93189740E8E3
:103620005EE360E070E01D964D935D936D937C9337
:10363000509763EF72E08CE295E00E944C16EDE14A
:10364000F5E013821282C482D582E682F7828AE68E
:1036500091E09183808384E0848788EE93E096876D
:103660008587FF90EF90DF90CF900895CF93DF9301
:10367000CDB7DEB760970FB6F894DEBF0FBECDBFF3
:10368000789484B5826084BD84B5816084BD85B53D
:10369000826085BD85B5816085BD80916E00816049
:1036A00080936E00109281008091810082608093EF
:1036B00081008091810081608093810080918000F1
:1036C0008160809380008091B10084608093B1001C
:1036D0008091B00081608093B00080917A00846016
:1036E00080937A0080917A00826080937A00809142
:1036F0007A00816080937A0080917A00806880935C
:103700007A001092C100E0915A04F0915B0482E0CB
:103710008083E0915604F09157041082E0915804A0
:10372000F09159048FEC808310926204E0915E0462
:10373000F0915F0486E08083E0915C04F0915D0489
:10374000808180618083E0915C04F0915D048081E0
:1037500088608083E0915C04F0915D0480818068E2
:103760008083E0915C04F0915D0480818F7D808393
:1037700062E0809137050E94A8010E944202605DCC
:1037800077408109910960933B0570933C058093D4
:103790003D0590933E0587E38093440561E083E017
:1037A0000E94A80161E084E00E94A80161E08AE033
:1037B0000E94A80160E083E00E945C0160E084E078
:1037C0000E945C0168E073E08AE494E00E941E08B5
:1037D00080911C0481112AC01092040410920304E9
:1037E00088EE93E0A0E0B0E0809305049093060497
:1037F000A0930704B09308048EE291E09093020432
:10380000809301048CE991E09093100480930F045D
:1038100010921104109212041092130410921404C6
:1038200084E08093190481E080931C048EEB93E084
:103830009093BD038093BC038091BB038111ADC005
:1038400060E372E080E090E00E941002DFB6F8943E
:103850000EE911E072EBE72E71E0F72E8091B903CB
:10386000811125C0F8018491F7019491E82FF0E0CF
:10387000EE0FFF1FEE59FE4FA591B4918C91982346
:1038800021F461E08AE00E945C0161E08AE00E942C
:10389000A8018CB580618CBD8CB580648CBD61E065
:1038A0008DE00E94A80161E08BE00E94A801809158
:1038B000B9038F5F8093B903DFBEF8010491E02F55
:1038C000F0E0EE0FFF1FE459FE4F85919491909325
:1038D000B8038093B703F701E490E092B60361E088
:1038E0008AE00E94A8010E947B0480E591E00E948A
:1038F0000A0184E38093490480E80E9447050E94FE
:10390000B809882309F4C7C188E00E9447050E94CE
:10391000A509883009F0BFC180E10E9447050E94D7
:10392000A509803109F0B7C180E00E9447050E94D7
:10393000A509182F8111AFC141E050E0BE016F5FB2
:103940007F4F8FE190E00E9430088981833009F039
:10395000A2C180E48093BA0342E06EE170E0812F5F
:103960000E94A30542E06FE170E0812F0E94A30551
:103970001F5F143089F740E06EE170E0812F0E94F4
:10398000A30540E06FE170E0812F0E94A3051F5F57
:10399000183089F781E08093BB0380E591E00E94B5
:1039A0000A0146E050E062E171E089E090E00E94A7
:1039B00097048CE991E09A8389831B821C821D8283
:1039C0001E8244E050E0BE016D5F7F4F8FE090E0CB
:1039D0000E9497040091BC031091BD03D8019296F8
:1039E0001D921D921D921C929597F80116A217A286
:1039F00010A611A69A961D921D921D921C929D973B
:103A000080E69AEEA0E0B0E086AB97ABA0AFB1AF96
:103A100080EA9FE0A0E0B0E082AF93AFA4AFB5AF83
:103A20003E9684E1DF011D928A95E9F786E0E2E1A6
:103A3000F1E0D801189601900D928A95E1F73801CE
:103A4000B2E46B0E711CF30110820E9479212FECFD
:103A500037E040E050E00E946125DC01CB01019697
:103A6000A11DB11DF80184839583A683B78380834C
:103A70009183A283B3831801F3E42F0E311CC1019B
:103A80000E94000964E470E0C1010E94690C88236F
:103A900009F46AC10E9442026B017C0148EE842E47
:103AA00043E0942EA12CB12C512C412CD3018C91AC
:103AB0008330B1F1811163C1F80184819581A681C0
:103AC000B7810196A11DB11D84839583A683B78319
:103AD0000E9442026C197D098E099F09A50194017B
:103AE0000E94CA25A90161E0C8010E94111481E069
:103AF000D3018C93F1E04F165104C1F20E944202AF
:103B00006C197D098E099F09D801D6962D913D919A
:103B10004D915C91D997261737074807590720F62A
:103B2000C1010E940009F80184819581A681B781B5
:103B30000196A11DB11D84839583A683B7830E943E
:103B40004202F801FE9660837183828393834A94D4
:103B5000452809F009C180E591E00E940A01009121
:103B6000BC031091BD03B801625F7F4FCE01019687
:103B70000E940E1044E050E0BE016D5F7F4F8FE069
:103B800090E00E949704B8016A5E7F4FCE010196D3
:103B90000E940E1044E050E0BE016D5F7F4F81E057
:103BA00090E00E949704B8016E5E7F4FCE010196AF
:103BB0000E940E1044E050E0BE016D5F7F4F85E033
:103BC00090E00E949704B801625E7F4FCE0101969B
:103BD0000E940E108B819C81AD81BE818093070570
:103BE00090930805A0930905B0930A050E94EB0184
:103BF0007F7380911801909119016827792770933C
:103C000019016093180168EE73E080E090E00E9473
:103C100010026DE173E08AE494E00E946D068CE985
:103C200091E09A8389831B821C821D821E8280E51B
:103C300091E00E940A0144E050E0BE016D5F7F4FB9
:103C40008FE090E00E9430086AE474E0CE010196B3
:103C50000E94C8068AE494E00E94120761E084E0B2
:103C60000E945C0140E0242E40E0342E0E944E026F
:103C7000882351F0809138058C3009F4A6C108F0F2
:103C800049C18B3009F460C1412C512C20EC622ECB
:103C90002FE7722E83C187E38093490480E80E9456
:103CA00047050E94B809882329F188E00E9447054A
:103CB0000E94A5098830F1F480E10E9447050E9426
:103CC000A509182F8031B1F480E00E9447050E94B9
:103CD000A50981110FC041E050E0BE016F5F7F4F29
:103CE00089E390E00E9430088981843019F41093B0
:103CF000BA0350CE83E38093490480E80E944705CD
:103D00000E94B809882371F180E10E9447050E9452
:103D1000A509803139F582E10E9447050E94A50975
:103D2000823101F580E00E9447050E94A5098111BA
:103D300019C084E08093BA0315E5188741E050E08C
:103D4000BE01685F7F4F8BE190E00E9497041F8364
:103D500041E050E0BE01695F7F4F8AE190E00E9440
:103D6000970418CE1092490468E273E08AE494E064
:103D70000E941E0860E084E00E945C01FBCF84305A
:103D8000F9F4F80184819581A681B7810196A11D7E
:103D9000B11D84839583A683B7830E9442026C1968
:103DA0007D098E099F09A50194010E94CA25A901D8
:103DB00063E0C8010E941114E2E0D301EC939ACEB3
:103DC000813059F5D801DA964D915D916D917C91D4
:103DD000DD979E012F5F3F4FC8010E9434188987ED
:103DE000823009F090C089819A81AB81BC81F80151
:103DF00084839583A683B7830E9442026C197D0950
:103E00008E099F09A50194010E94CA25A90163E0BA
:103E1000C8010E941114E985D0CF823009F06ACE22
:103E2000D801DA964D915D916D917C91DD979E015F
:103E30002F5F3F4FC8010E9434188987853009F0F1
:103E40005CC083E0F3018083F80182A193A1A4A167
:103E5000B5A1892B8A2B8B2B41F484E893E0A0E059
:103E6000B0E082A393A3A4A3B5A3F80186A197A170
:103E7000A0A5B1A5892B8A2B8B2B61F482A193A1DC
:103E8000A4A1B5A1B695A7959795879586A397A365
:103E9000A0A7B1A7F80182A593A5A4A5B5A5892BD4
:103EA0008A2B8B2BA9F482A193A1A4A1B5A1AC016B
:103EB000BD0123E076956795579547952A95D1F7EB
:103EC000841B950BA60BB70B82A793A7A4A7B5A736
:103ED000F80186A197A1A0A5B1A586A797A7A0AB39
:103EE000B1AB82A593A5A4A5B5A582AB93ABA4ABBA
:103EF000B5AB44244394512CFDCDF985F63019F42B
:103F0000D3011C92F7CDB985BF3F09F0F3CDF30182
:103F10001082F0CD8551823008F0B6CE1091340574
:103F2000612F70E0762F662766277F7780913505B1
:103F3000682B90E080E00E9442242DEC3CEC4CEC9D
:103F40005DE30E94A3245DC06091340570E090E0C1
:103F500080E00E9442246B017C011091350517FF1F
:103F60000AC0AC019B0160E070E080E89FEB0E941A
:103F7000FB256B017C011F70612F70E090E080E0F9
:103F80000E9444242DEC3CEC4CEC5DE30E94A32405
:103F9000A70196010E94FC252B013C010E944E02C4
:103FA000882351F0809138058B3030F08D3090F1BE
:103FB0008551823008F4A8C080E090E0A0ECBFE713
:103FC00089879A87AB87BC8745C010913405612FDC
:103FD00070E090E080E00E9442246B017C016091DF
:103FE00035056F7070E090E080E00E9444242DEC75
:103FF0003CEC4CEC5DE30E94A324A70196010E94D7
:10400000FC252B013C0117FFC9CF77FA709477F894
:104010007094C4CF6091330570E090E080E00E941E
:1040200044242DEC3CEC4CEC5DE30E94A3246B019A
:104030007C016091320570E090E080E00E944424B1
:104040009B01AC01C701B6010E94FC2569877A87F4
:104050008B879C878EE00E94D901BC01990F880B49
:10406000990B0E9444242AE038E240EA5BE30E9474
:10407000A32420E030E048EC52E40E94A3246D87A2
:104080007E878F87988B8FE00E94D9016C01A301F6
:104090009201C301B2010E949C2681110AC02985A8
:1040A0003A854B855C85CA01B9010E949C2688230C
:1040B000E9F16DE373E08AE494E00E941E0860E099
:1040C00084E00E945C01912C812CB12CA12CD12C7C
:1040D000C12CE12CF12C8701A8019701C801B7017F
:1040E0000E94651660ED77E080E090E00E9410028B
:1040F0002114310409F4BACD0E94BE03882309F4C7
:10410000B5CD0E940000B2CD6091320570913305AB
:1041100076276727762790E080E00E9442242DECE6
:104120003CEC4CEC5DE30E94A32490CF61E084E082
:104130000E945C0120E030E04CE052E4C301B20197
:104140000E94972618160CF05FC061E083E00E9481
:104150005C01AA24A394B12C6FE473E08AE494E098
:104160000E941E0869E673E08AE494E00E946D06EE
:10417000C301B2010E944C0766E773E08AE494E051
:104180000E946D0669857A858B859C850E944C0707
:1041900061E873E08AE494E00E946D066D857E8597
:1041A0008F8598890E944C076DE873E08AE494E05B
:1041B0000E946D06C6010E94160769E973E08AE451
:1041C00094E00E946D06C5010E94160766EA73E03E
:1041D0008AE494E00E946D0681E090E00E94160758
:1041E00088248394912CED84FE840F851889298579
:1041F0003A854B855C85C301B2010E94651668E86B
:1042000073E180E090E072CF60E083E00E945C01A7
:10421000B12CA12CA1CF8CE295E00C945D16EF920D
:104220000F931F93CF93DF93E80134E047FD34E110
:10423000042E000C550B57FF03C0519541955109B1
:10424000E32E022F242FAE010E94F621CE01DF9132
:10425000CF911F910F91EF9008958F929F92AF92FF
:10426000BF92CF92DF92EF92FF92CF93DF93EC0158
:10427000688179818A819B8161157105810591052C
:1042800021F464E279ED8BE597E02DE133EF41E035
:1042900050E00E94612549015A019B01AC01A7EA47
:1042A000B1E40E9480256B017C01ACEEB4EFA50166
:1042B00094010E948E25C60ED71EE81EF91EF7FE39
:1042C00006C081E0C81AD108E10880E8F80AC8826F
:1042D000D982EA82FB82C701B6019F77DF91CF9135
:1042E000FF90EF90DF90CF90BF90AF909F908F9016
:1042F00008958F929F92AF92BF92CF92DF92EF92EA
:10430000FF9260911A0170911B0180911C019091A4
:104310001D01611571058105910521F464E279EDB6
:104320008BE597E02DE133EF41E050E00E946125FD
:1043300049015A019B01AC01A7EAB1E40E94802522
:104340006B017C01ACEEB4EFA50194010E948E25B7
:10435000C60ED71EE81EF91EF7FE06C081E0C81A79
:10436000D108E10880E8F80AC0921A01D0921B0136
:10437000E0921C01F0921D01C701B6019F77FF90EA
:10438000EF90DF90CF90BF90AF909F908F90089567
:1043900060931A0170931B0180931C0190931D017F
:1043A0000895BB274A3031F4992322F4BDE2909559
:1043B00081959F4F0C94DD21BB27FB015527AA2730
:1043C000880F991FAA1FA41710F0A41B83955051A2
:1043D000B9F7A05DAA3308F0A95DA193009779F71A
:1043E000B111B1931192CB010C942D24A9E0B0E04E
:1043F000ECEFF1E20C9499256A01F22EB02E102F09
:10440000FBE3AF2EA01608F41BE31F5F012F27E08C
:10441000AE014F5F5F4F0E945523BC018981982FE9
:104420009970913009F43FC09BE2E1FC04C09E2DDD
:104430009170E0FC3AC05E2D5071E82FE87083FF68
:1044400046C084E0911101C083E0EF2DE81B8F1579
:1044500008F0E0E0D6018E2F20E2552351F1992398
:1044600029F0D6019C93C60101966C0196012D5F3F
:104470003F4FE2FE24C08EE4D6018C9391E4119666
:104480009C93119712968C93D9018E2F90E28111F3
:104490001BC0E20FF32FF11D10828EEF9FEF2996C4
:1044A000ECE00C94B5259DE2C6CF90E2C4CF2D93ED
:1044B00081508111FCCFCE0ED11CE0E0D0CF8EE632
:1044C000D6018C9391E6DBCF9D938150E0CF482FAE
:1044D000447082FF3DC084E0911101C083E08F15DC
:1044E00010F4EF2DE81BD6018E2F20E2552309F1A1
:1044F000992329F0D6019C93C60101966C0196017F
:104500002D5F3F4FE2FE1BC089E4D6018C938EE401
:1045100011968C93119786E412968C93D9018E2F65
:1045200090E2882309F4B5CF9D938150FACF2D9363
:1045300081508111FCCFCE0ED11CE0E0D9CF89E6AD
:10454000D6018C938EE611968C93119786E6E4CF74
:104550009B0177FF02C030E020E0A1E0B0E09111C4
:1045600002C0B0E0A0E0F9013196AE0FBF1F8B2C66
:10457000912CBB2009F461C05401EFEFAE1ABE0AC2
:10458000AA0DBB1DFA161B0619F014F04F2D4A1B7D
:10459000511188C0E3FC59C07601A42FB0E2A111EB
:1045A0004FC0C40ED11C992309F45BC040E0D60172
:1045B0001196F60190836D01552309F448C0012F2F
:1045C000060F9A81582F507184FF03C0913309F46C
:1045D000015010160CF047C0093008F008E0EEE278
:1045E000FE2E5B01A01AB108850191948194910877
:1045F0002F3F320729F4D601FC92F60131966F0164
:104600006217730794F1021713077CF5DB01A21BF5
:10461000B30BAA24A394B12CAC0EBD1EAA0DBB1DD6
:1046200011968C9121503109D60111962815390522
:10463000F4F0F60180836D01DBCFB12CA12CA0CF6B
:10464000F701B1937F01A150AACF9111B0CFD6014C
:10465000942F50E302C05D9391509111FCCFC40E92
:10466000D11C40E0ACCF01E0BACF80E3DBCF6217D2
:10467000730731F4963388F4953311F4552369F0B8
:10468000F6018083FD01842F90E2811108C0A40F00
:10469000B11D1C9290E080E002CF81E3F1CF9193B5
:1046A0008150F3CF911183CF8ACF283008F027E0D3
:1046B0003327DA01990F311D87FD9160009661055E
:1046C000710539F432602E5F3D9330E32A95E1F7AE
:1046D00008959F3F30F080387105610509F03C5F17
:1046E0003C5F3D93913008F08068911DDF93CF933C
:1046F0001F930F93FF92EF92192F987F9695E92FB2
:1047000096959695E90FFF27EE53FF4F992733278C
:10471000EE24FF24A701E70105900894079428F4EC
:10472000360FE71EF81E491F511D660F771F881FA1
:10473000991F0694A1F70590079428F4E70EF81E38
:10474000491F561FC11D770F881F991F661F0694AA
:10475000A1F70590079428F4F80E491F561FC71FAC
:10476000D11D880F991F661F771F0694A1F705902A
:10477000079420F4490F561FC71FD81F990F661FB3
:10478000771F881F0694A9F784911095177041F040
:10479000D695C79557954795F794E7941A95C1F71D
:1047A000E8E6F0E068941590159135916591959142
:1047B00005907FE27395E118F10A430B560BC90B84
:1047C000D009C0F7E10CF11E431F561FC91FD01DB1
:1047D0007EF4703311F48A95E6CFE894015030F0FE
:1047E000080F0AF40027021708F4202F2395022F40
:1047F0007A3328F079E37D932A95E9F710C07D9309
:104800002A9589F606949795679537951795179485
:10481000E118F10A430B560BC90BD00998F0239508
:104820007E9173957A3308F070E37C932013B8F788
:104830007E9170617D9330F0839571E37D9370E399
:104840002A95E1F71124EF90FF900F911F91CF91DE
:10485000DF91992787FD90950895DC01FC01672F72
:1048600071917723E1F7329704C07C916D93708347
:104870006291AE17BF07C8F308950E947F2408F421
:1048800081E00895E89409C097FB3EF490958095E7
:10489000709561957F4F8F4F9F4F9923A9F0F92F06
:1048A00096E9BB279395F695879577956795B79584
:1048B000F111F8CFFAF4BB0F11F460FF1BC06F5F6A
:1048C0007F4F8F4F9F4F16C0882311F096E911C07C
:1048D000772321F09EE8872F762F05C0662371F09D
:1048E00096E8862F70E060E02AF09A95660F771FB1
:1048F000881FDAF7880F9695879597F90895990F8D
:104900000008550FAA0BE0E8FEEF16161706E80799
:10491000F907C0F012161306E407F50798F0621BBA
:10492000730B840B950B39F40A2661F0232B242B8F
:10493000252B21F408950A2609F4A140A6958FEFAE
:10494000811D811D08950E94B6240C9427250E9484
:10495000192538F00E94202520F0952311F00C94A1
:1049600010250C94162511240C945B250E943825E3
:1049700070F3959FC1F3950F50E0551F629FF001B2
:10498000729FBB27F00DB11D639FAA27F00DB11DCB
:10499000AA1F649F6627B00DA11D661F829F222754
:1049A000B00DA11D621F739FB00DA11D621F839FDB
:1049B000A00D611D221F749F3327A00D611D231FB1
:1049C000849F600D211D822F762F6A2F11249F57FF
:1049D00050409AF0F1F088234AF0EE0FFF1FBB1F02
:1049E000661F771F881F91505040A9F79E3F5105C1
:1049F00080F00C9410250C945B255F3FE4F3983E07
:104A0000D4F3869577956795B795F795E7959F5F6A
:104A1000C1F7FE2B880F911D9695879597F90895FC
:104A200097F99F6780E870E060E008959FEF80EC61
:104A3000089500240A941616170618060906089504
:104A400000240A9412161306140605060895092E6A
:104A50000394000C11F4882352F0BB0F40F4BF2BD9
:104A600011F460FF04C06F5F7F4F8F4F9F4F089519
:104A700057FD9058440F551F59F05F3F71F047950F
:104A8000880F97FB991F61F09F3F79F087950895F4
:104A9000121613061406551FF2CF4695F1DF08C013
:104AA000161617061806991FF1CF86957105610530
:104AB00008940895E894BB2766277727CB0197F9D8
:104AC0000895052E97FB1EF400940E94782557FD4B
:104AD00007D00E94CA2507FC03D04EF40C94782519
:104AE00050954095309521953F4F4F4F5F4F08951A
:104AF00090958095709561957F4F8F4F9F4F08954A
:104B00000E94EC25A59F900DB49F900DA49F800D51
:104B1000911D11240895B7FF0C9480250E948025D3
:104B2000821B930B08952F923F924F925F926F9248
:104B30007F928F929F92AF92BF92CF92DF92EF922D
:104B4000FF920F931F93CF93DF93CDB7DEB7CA1BAE
:104B5000DB0B0FB6F894DEBF0FBECDBF09942A88D9
:104B6000398848885F846E847D848C849B84AA8481
:104B7000B984C884DF80EE80FD800C811B81AA810E
:104B8000B981CE0FD11D0FB6F894DEBF0FBECDBFD9
:104B9000ED010895A1E21A2EAA1BBB1BFD010DC059
:104BA000AA1FBB1FEE1FFF1FA217B307E407F507DD
:104BB00020F0A21BB30BE40BF50B661F771F881FB9
:104BC000991F1A9469F760957095809590959B014F
:104BD000AC01BD01CF010895A29FB001B39FC001F8
:104BE000A39F700D811D1124911DB29F700D811D19
:104BF0001124911D08955058BB27AA270E941326FF
:104C00000C9427250E94192538F00E94202520F0B9
:104C100039F49F3F19F426F40C9416250EF4E09510
:104C2000E7FB0C941025E92F0E94382558F3BA179A
:104C3000620773078407950720F079F4A6F50C94B2
:104C40005A250EF4E0950B2EBA2FA02D0B01B901B9
:104C500090010C01CA01A0011124FF27591B99F0F2
:104C6000593F50F4503E68F11A16F040A22F232FFE
:104C7000342F4427585FF3CF469537952795A7954E
:104C8000F0405395C9F77EF41F16BA0B620B730BF5
:104C9000840BBAF09150A1F0FF0FBB1F661F771F66
:104CA000881FC2F70EC0BA0F621F731F841F48F41B
:104CB000879577956795B795F7959E3F08F0B0CFA4
:104CC0009395880F08F09927EE0F9795879508958B
:104CD0000E94402588F09F5798F0B92F9927B75127
:104CE000B0F0E1F0660F771F881F991F1AF0BA9590
:104CF000C9F714C0B13091F00E945A25B1E008956F
:104D00000C945A25672F782F8827B85F39F0B93F60
:104D1000CCF3869577956795B395D9F73EF4909542
:104D20008095709561957F4F8F4F9F4F08950E949A
:104D30007F2408F48FEF08950E947F24880B990B3D
:104D40000895692796276927782787277827089560
:104D5000EE0FFF1F0590F491E02D09940F931F9320
:104D6000CF93DF938230910510F482E090E0E091E0
:104D70004D05F0914E0530E020E0B0E0A0E0309726
:104D800099F42115310509F44AC0281B390B243048
:104D90003105D8F58A819B816115710589F1FB0187
:104DA00093838283FE0111C040815181028113816E
:104DB00048175907E0F04817590799F4109761F020
:104DC00012960C93129713961C933296CF01DF9193
:104DD000CF911F910F91089500934D0510934E05AB
:104DE000F4CF2115310551F04217530738F0A901CE
:104DF000DB019A01BD01DF01F801C1CFEF01F9CF5D
:104E000090934E0580934D05CDCFFE01E20FF31F29
:104E1000819391932250310939832883D7CF2091F0
:104E20004B0530914C05232B41F42091200130910A
:104E3000210130934C0520934B0520911E013091A8
:104E40001F012115310541F42DB73EB740912201D4
:104E500050912301241B350BE0914B05F0914C053B
:104E6000E217F307A0F42E1B3F0B2817390778F041
:104E7000AC014E5F5F4F2417350748F04E0F5F1FA0
:104E800050934C0540934B05819391939FCFF0E055
:104E9000E0E09CCFCF93DF930097E9F0FC013297DD
:104EA00013821282A0914D05B0914E05ED0130E0C4
:104EB00020E01097A1F420813181820F931F20916F
:104EC0004B0530914C052817390709F061C0F09364
:104ED0004C05E0934B05DF91CF910895EA01CE1781
:104EE000DF07E8F54A815B819E0141155105B1F765
:104EF000E901FB83EA8349915991C40FD51FEC174F
:104F0000FD0761F4808191810296840F951FE9016C
:104F100099838883828193819B838A83F0E0E0E098
:104F200012968D919C9113970097B9F52D913C9114
:104F30001197CD010296820F931F20914B0530915E
:104F40004C052817390739F6309751F510924E0560
:104F500010924D05B0934C05A0934B05BCCFD38365
:104F6000C28340815181840F951FC817D90761F40E
:104F70004E5F5F4F88819981480F591F518340834D
:104F80008A819B81938382832115310509F0B0CFFB
:104F9000F0934E05E0934D059ECFFD01DC01C0CF9F
:104FA00013821282D7CFB0E0A0E0E9EDF7E20C94D3
:104FB00095258C01009751F4CB010E94AE268C01FF
:104FC000C801CDB7DEB7E0E10C94B125FC01E60FD6
:104FD000F71F9C0122503109E217F30708F49DC026
:104FE000D901CD91DC911197C617D70798F0C5303C
:104FF000D10530F3CE0104978617970708F3C61B37
:10500000D70B2297C193D1936D937C93CF010E94CC
:105010004A27D6CF5B01AC1ABD0A4C018C0E9D1EEF
:10502000A0914D05B0914E05512C412CF12CE12C55
:10503000109731F580914B0590914C058815990595
:1050400009F05CC04616570608F058C080911E0152
:1050500090911F01009741F48DB79EB740912201B6
:1050600050912301841B950BE817F90708F055C0F0
:10507000F0934C05E0934B05F90171836083A0CF59
:105080008D919C91119712966C90129713967C902B
:105090001397A815B90559F56C0142E0C40ED11C4F
:1050A000CA14DB0420F1AC014A195B09DA0112963B
:1050B000159780F06282738251834083D9016D938A
:1050C0007C93E114F10471F0D7011396FC93EE93F5
:1050D000129776CF22968C0F9D1FF90191838083C2
:1050E000F301EFCFF0934E05E0934D0569CF4816DD
:1050F000590608F42C017D01D3019ACFCB010E94FF
:10510000AE267C01009749F0AE01B8010E949D28AF
:10511000C8010E944A27870153CF10E000E050CF1A
:10512000FB01DC0104C08D910190801921F44150F4
:105130005040C8F7881B990B0895FB01DC0102C0A1
:1051400001900D9241505040D8F70895DC0101C004
:105150006D9341505040E0F70895FB01DC01019050
:105160000D920020E1F7089510E0CFEDD0E004C0EB
:10517000FE010E94A8262196C03ED107C9F7F894E7
:02518000FFCF5F
:105182007468696E6773626F6172642E636C6F75A7
:105192006400DEADBEEFFEED00C0010000000000C5
:1051A2004F05800001005E00000000000000C00505
:1051B200790D4E0623011F016D0FF409690C040BD2
:1051C2000009F8051313740955104E0F47063706E8
:1051D20033062F0600000000F40354038103410448
:1051E200B2039003A40300000000E105B30D700DAB
:1051F2005B0D750E970F030AE70B8613B10F3B0980
:10520200190964066C06321861065F06D605550652
:10521200E40F1A10BA0F510600000000C8060D0A6A
:10522200006E616E00696E66006F76660057495ABD
:105232006E6574007B002274656D706572617475B1
:105242007265223A002C002268756D69646974796E
:10525200223A00226C6D333554656D70223A002279
:10526200766962726174696F6E223A00226C6564BB
:10527200537461747573223A002273797374656D85
:10528200537461747573223A007D00436F6E6E65CC
:105292006374696E6720746F205468696E67734225
:1052A2006F6172642E2E2E00436F6E6E6563746999
:1052B2006F6E20746F207365727665722066616905
:1052C2006C656400504F5354202F6170692F763102
:1052D2002F002F74656C656D657472792048545483
:1052E200502F312E3100486F73743A207468696E02
:1052F2006773626F6172642E636C6F756400436FD3
:105302006E74656E742D547970653A206170706C9C
:1053120069636174696F6E2F6A736F6E00436F6E9B
:105322006E656374696F6E3A20636C6F73650043D8
:105332006F6E74656E742D4C656E6774683A2000EA
:105342002D2D2D2D2D204854545020524553504F71
:105352004E5345202D2D2D2D2D002D2D2D2D2D2063
:10536200454E4420524553504F4E5345202D2D2D2E
:105372002D2D00504136564372734F6231526647AB
:105382004A463863764575005374617274696E6774
:105392002045746865726E65742E2E2E004C6F6304
:1053A200616C2049503A200045746865726E6574DC
:1053B2002044484350206661696C65640044485447
:1053C20032322072656164206661696C6564002D09
:1053D2002D2D2D2D2D204E4F44452031204441545A
:1053E20041202D2D2D2D2D2D004448543232205494
:1053F200656D703A200048756D69646974793A2068
:10540200004C4D33352054656D703A200056696268
:10541200726174696F6E3A20004C45442053746186
:105422007475733A200053797374656D20537461F7
:065432007475733A2000BE
:00000001FF
