:100000000C94E0000C9408010C9408010C94080175
:100010000C9408010C9408010C9408010C9408013C
:100020000C9408010C9408010C9408010C9408012C
:100030000C9408010C9408010C9408010C9408011C
:100040000C94D3160C9408010C9443170C941D17B0
:100050000C9408010C9408010C9408010C940801FC
:100060000C9408010C94080100407A10F35A00A087
:10007000724E18090010A5D4E80000E87648170071
:1000800000E40B54020000CA9A3B000000E1F505B1
:10009000000080969800000040420F000000A086FB
:1000A00001000000102700000000E803000000002D
:1000B0006400000000000A000000000001000000D1
:1000C00000002C76D888DC674F0823DFC1DFAE59EB
:1000D000E1B1B796E5E3E453C63AE651997696E87E
:1000E000E6C28426EB898C9B62ED407C6FFCEFBC02
:1000F0009C9F40F2BAA56FA5F490055A2AF75C932D
:100100006B6CF9676DC11BFCE0E40D47FEF520E662
:10011000B500D0ED902E0300943577050080841E45
:10012000080000204E0A000000C80C333333330FA0
:10013000986E12831141EF8D2114893BE65516CF3D
:10014000FEE6DB18D1844B381BF77C1D901DA4BB49
:10015000E424203284725E228100C9F124ECA1E5FE
:100160003D2700000000240027002A0000000000B6
:10017000250028002B0000000008000201000003F9
:100180000407000000000000000000000000230041
:1001900026002900040404040404040402020202E8
:1001A000020203030303030301020408102040803A
:1001B0000102040810200102040810207517001D18
:1001C00011241FBECFEFD8E0DEBFCDBF14E0A0E00A
:1001D000B1E0EEE5F8E402C005900D92A433B1075A
:1001E000D9F725E0A4E3B4E001C01D92A338B2071B
:1001F000E1F710E0CFEDD0E004C02197FE010E94AE
:100200002322CE3DD107C9F70E945C180C9422240A
:100210000C9400008CBD9DBD0895FC01818D928DD4
:1002200008950895CF92DF92EF92FF92CF93DF93DC
:10023000B0916D05A0E08111AB2F80916E0590E02B
:10024000880F991FAC0146575E4FC0907305D09040
:100250007405E0907505F090760530E020E0FA0135
:10026000C591D491E881B90190E080E0EB23EA13D5
:100270000AC02F5F3F4F6C157D058E059F0578F3F3
:100280006FEF7FEFCB01DF91CF91FF90EF90DF9089
:10029000CF900895833081F028F4813099F0823036
:1002A000A9F008958730A9F08830C9F08430B1F4FE
:1002B000809180008F7D03C0809180008F77809334
:1002C0008000089584B58F7784BD089584B58F7DAF
:1002D000FBCF8091B0008F778093B000089580911C
:1002E000B0008F7DF9CF1F93CF93DF93282F30E09D
:1002F000F901EA58FE4F8491F901E855FE4FD49177
:10030000F901EC56FE4FC491CC23A9F0162F8111B0
:100310000E944A01EC2FF0E0EE0FFF1FE459FE4F60
:10032000A591B4918FB7F894EC91111108C0D095B4
:10033000DE23DC938FBFDF91CF911F910895DE2BD9
:10034000F8CFCF93DF9390E0FC01E855FE4F249166
:100350008C569E4FFC0184918823D1F090E0880F49
:10036000991FFC01EE59FE4FA591B491FC01E4598F
:10037000FE4FC591D491623071F49FB7F8943C91CF
:10038000822F809583238C93E8812E2B28839FBF17
:10039000DF91CF9108958FB7F894EC912E2B2C9389
:1003A0008FBFF6CF3FB7F8948091440490914504F5
:1003B000A0914604B091470426B5A89B05C02F3FE5
:1003C00019F00196A11DB11D3FBFBA2FA92F982F7B
:1003D0008827BC01CD01620F711D811D911D42E076
:1003E000660F771F881F991F4A95D1F708958F923E
:1003F0009F92AF92BF92CF92DF92EF92FF924B010A
:100400005C010E94D2016B017C010E94D2016C1937
:100410007D098E099F09683E734081059105A8F307
:1004200021E0821A9108A108B10888EEC80E83E085
:10043000D81EE11CF11C81149104A104B10429F718
:10044000FF90EF90DF90CF90BF90AF909F908F90F4
:1004500008952FB7F8946091400470914104809101
:100460004204909143042FBF0895CF92DF92EF9200
:10047000FF920F931F93CF93DF93CDB7DEB7C05496
:10048000D1400FB6F894DEBF0FBECDBF0E94290247
:1004900000916F05109170052091710530917205E2
:1004A0006B017C01C01AD10AE20AF30A97018601A6
:1004B000003D17402105310590F480917705C05C1F
:1004C000DE4F0FB6F894DEBF0FBECDBFDF91CF91E8
:1004D0001F910F91FF90EF90DF90CF900895609360
:1004E0006F0570937005809371059093720510925B
:1004F0006A051092690510926805109267051092BE
:10050000660562E080916B050E94A10161E070E0E8
:1005100080E090E00E94F70161E080916B050E940D
:10052000A10160E080916B050E94730180916C05D0
:100530008551823020F58BE291E10197F1F762E07D
:1005400080916B050E94A1018091780590E0823036
:10055000910538F0880F991F880F991F059701970B
:10056000F1F7F89480E00E9412016F3F7F4F8F4FA8
:100570009F4F61F410927705789480E0A0CF64E1FA
:1005800070E080E090E00E94F701D9CF81E00E9406
:1005900012016F3F7F4F8F4F9F4F61F38E010F5FAF
:1005A0001F4F6E012FEBC21A2EEFD20A780180E0A6
:1005B0000E941201F701608371838283938381E03B
:1005C0000E941201F7016483758386839783F8E0A4
:1005D000EF0EF11CEC14FD0451F7789430E020E0AC
:1005E000F801C080D180E280F3804481558166812A
:1005F0007781FFEFCF16DF06EF06FF0631F04F3FA2
:100600008FEF58076807780719F410927705B5CF70
:10061000F90183E0F595E7958A95E1F7EA59FA4FF4
:100620008081880FC416D506E606F70610F1808390
:100630002F5F3F4F085F1F4F2832310589F64091E9
:100640006A052091660580916705280F3327331FBF
:1006500080916805280F311D80916905820F932FC5
:10066000911D99274817190681F681E08093770537
:1006700026CF8160DCCFAF92BF92CF92DF92EF9214
:10068000FF920F931F93CF93DF936C017B018B013C
:10069000040F151FEB015E01AE18BF08C017D1078C
:1006A00059F06991D601ED91FC910190F081E02D16
:1006B000C6010995892B79F7C501DF91CF911F916B
:1006C0000F91FF90EF90DF90CF90BF90AF90089583
:1006D000FC01538D448D252F30E0842F90E0821B48
:1006E000930B541710F0CF96089501970895FC01CD
:1006F000918D828D981761F0A28DAE0FBF2FB11D25
:100700005D968C91928D9F5F9F73928F90E008957C
:100710008FEF9FEF0895FC01918D828D981731F036
:10072000828DE80FF11D858D90E008958FEF9FEF8A
:100730000895FC01918D228D892F90E0805C9F4F60
:10074000821B91098F739927089586E694E00E9491
:10075000990321E0892B09F420E0822F089580E09D
:1007600090E0892B29F00E94A50381110C940000D0
:100770000895FC01A48DA80FB92FB11DA35ABF4F36
:100780002C91848D90E001968F739927848FA68990
:10079000B7892C93A089B1898C91837080648C93E4
:1007A000938D848D981306C00288F389E02D808193
:1007B0008F7D80830895EF92FF920F931F93CF93C5
:1007C000DF93EC0181E0888F9B8D8C8D98131AC08C
:1007D000E889F989808185FF15C09FB7F894EE8973
:1007E000FF896083E889F9898081837080648083D0
:1007F0009FBF81E090E0DF91CF911F910F91FF901B
:10080000EF900895F62E0B8D10E00F5F1F4F0F73C2
:100810001127E02E8C8D8E110CC00FB607FCFACF7D
:10082000E889F989808185FFF5CFCE010E94B9035F
:10083000F1CFEB8DEC0FFD2FF11DE35AFF4FF0824E
:100840009FB7F8940B8FEA89FB8980818062CFCFB4
:10085000CF93DF93EC01888D8823B9F0AA89BB89F7
:10086000E889F9898C9185FD03C0808186FD0DC0E2
:100870000FB607FCF7CF8C9185FFF2CF808185FF03
:10088000EDCFCE010E94B903E9CFDF91CF9108955A
:10089000FC0120812EBD9B012150310941F0518185
:1008A0000DB407FEFDCF4EB55EBD4193F5CF61504F
:1008B0007109860F971F0DB407FEFDCF2EB5FC0101
:1008C00020830895E0913504F09136048081909161
:1008D0003404892B80830895E0913504F091360427
:1008E00090818091340480958923808308958EBD02
:1008F00000000DB407FEFDCF8EB50895AF92BF92F4
:10090000CF92DF92EF92FF920F931F93CF93DF93DB
:10091000CDB7DEB728970FB6F894DEBF0FBECDBFB8
:100920008C017B016A01809164048333E1F45801F6
:10093000A40EB51EA016B10609F46FC00E946C0487
:1009400080EF0E947704812F0E947704802F0E94FD
:1009500077040F5F1F4FF70181917F010E94770499
:100960000E946204E7CF5B01A40EB51E8433C1F47C
:100970000E946C0419830A838D2D80688B83CC823E
:1009800064E070E0CE0101960E944804AE14BF04FA
:1009900009F441C0F70181917F010E947704F6CFED
:1009A0000E946C040F3F110509F028F419820A8394
:1009B00084E08B830CC017FD17C019820A8333E0D3
:1009C000169507953A95E1F7007E0C600B8386E05B
:1009D000C816D104A0F5F701DE011496EA15FB054F
:1009E00099F081918D93FACFC80126E0969587956D
:1009F0002A95E1F7807E19830A830115104C10F4C3
:100A00008461D7CF8C61D5CFB6016D5F7F4FCE01AA
:100A100001960E9448040E946204C60128960FB6FF
:100A2000F894DEBF0FBECDBFDF91CF911F910F9124
:100A3000FF90EF90DF90CF90BF90AF90089563E06C
:100A400070E0CE0101960E944804F70181917F0178
:100A50000E947704AE14BF04C1F7DDCFCF93DF93BC
:100A60001F92CDB7DEB7898341E050E0BE016F5FD2
:100A70007F4F90E080E00E947E040F90DF91CF9145
:100A8000089590E020916404233339F40C96982F54
:100A9000990F990F990F80E008954896F8CFDA01E1
:100AA000E0913804F0E0FE2FEE27E60FF71F90E00C
:100AB000982F8827A901BD018E0F9F1F0C947E04DB
:100AC000CF93DF9300D0CDB7DEB779836A8322E07E
:100AD00030E0AE014F5F5F4F60E170E00E944F0574
:100AE0000F900F90DF91CF910895CF93DF9300D0B7
:100AF000CDB7DEB779836A8322E030E0AE014F5F85
:100B00005F4F64E070E00E944F050F900F90DF91FF
:100B1000CF910895CF93DF931F92CDB7DEB7209189
:100B2000380430E0322F2227260F371F90E0982F0D
:100B30008827498341E050E0BE016F5F7F4F820FFD
:100B4000931F0E947E040F90DF91CF910895CF9361
:100B5000DF931F92CDB7DEB76983DC01ED91FC9185
:100B60000280F381E02D41E050E0BE016F5F7F4FD6
:100B700009950F90DF91CF910895FC019485FB01B9
:100B80008485981303C081E0943008F080E00895D4
:100B9000CF93DF931F92CDB7DEB76983DC01ED9170
:100BA000FC910280F381E02D41E050E0BE016F5FD7
:100BB0007F4F09950F90DF91CF9108950895FF928F
:100BC0000F931F93CF93DF93EB01FC01178A168AD3
:100BD0002A81211109C02B81211106C02C812111EC
:100BE00003C02D81222301F141155105E9F08A014D
:100BF000FC01F08C80E591E00E940A01AE014E5F9D
:100C00005F4F24E030E06CE070E08F2D0E944F05D4
:100C1000B8018F2D0E94600581E090E0DF91CF91B7
:100C20001F910F91FF90089580E0F7CFFC0184851C
:100C300095850895FC0184899589089520EA31E01D
:100C4000FC0131832083FB014089518962897389CA
:100C5000FC0142835383648375830895DC01ED9125
:100C6000FC91048CF58DE02D099490E080E00895CE
:100C7000FC01768765870895DC01ED91FC9102A067
:100C8000F3A1E02D099591E089270895862F089515
:100C900081E08627089521E0FC018485843008F0F6
:100CA00020E0822F08950895FB0101900020E9F7CC
:100CB0003197AF01461B570BDC01ED91FC9102808F
:100CC000F381E02D09948F929F92AF92BF92EF92A1
:100CD000FF920F931F93CF93DF93CDB7DEB7A1970A
:100CE0000FB6F894DEBF0FBECDBF7C01FA01CB0179
:100CF00019A2223008F42AE08E010F5D1F4F822EC8
:100D0000912CB12CA12CBF01A50194010E94E920D6
:100D1000F901CA016A300CF5605DD8016E938D014E
:100D2000232B242B252B79F790E080E0109721F0DE
:100D3000BD01C7010E945406A1960FB6F894DEBF0C
:100D40000FBECDBFDF91CF911F910F91FF90EF901C
:100D5000BF90AF909F908F900895695CDECF8F9287
:100D60009F92AF92BF92CF92DF92EF92FF920F933A
:100D70001F93CF93DF937C01EB016C0182E0C80EDF
:100D8000D11C4701E5E08E0E911C10E000E0F60159
:100D900041916F0150E070E060E02AE0CE010E94D6
:100DA00063065C01E881F9810190F081E02D6EE23B
:100DB000CE0109958A0D9B1D080F191FC814D9046F
:100DC00031F7F701458150E070E060E02AE0CE01A4
:100DD0000E946306800F911FDF91CF911F910F91A9
:100DE000FF90EF90DF90CF90BF90AF909F908F904B
:100DF00008954F925F926F927F928F929F92AF92DF
:100E0000BF92CF92DF92EF92FF920F931F93CF93F7
:100E10006B017C01742EAC019B010E941E2262EAD0
:100E200071E0811126C046015701E894B7F82FEF11
:100E30003FEF4FE75FE7C501B4010E941E22811119
:100E40000CC02FEF3FEF4FE75FE7C501B4010E94F1
:100E50008E1F66EA71E0181664F02FEF3FEF4FE740
:100E60005FE4C701B6010E9419221816ACF46AEAC1
:100E700071E086E694E0CF911F910F91FF90EF9083
:100E8000DF90CF90BF90AF909F908F907F906F90AA
:100E90005F904F900C9454062FEF3FEF4FE75FECBD
:100EA000C701B6010E948E1F87FDE1CF20E030E030
:100EB000A901C701B6010E948E1F10E000E087FF64
:100EC0000AC06DE286E694E00E94DB038C01F7FA2B
:100ED000F094F7F8F094C0E060E070E080E09FE309
:100EE0007C1641F020E030E040E251E40E9478219D
:100EF000CF5FF6CFA70196010E940C212B013C0188
:100F00000E94EA214B015C012AE0BC01A40186E6B3
:100F100094E00E9463067C01E00EF11ECC23D1F127
:100F2000C501B4010E94931F9B01AC01C301B20132
:100F30000E940B214B015C016EE286E694E00E9468
:100F4000DB03E80EF91EC15028F120E030E040E25A
:100F500051E4C501B4010E94F41F2B013C010E9421
:100F6000EA214B01B12CA12C2AE0B501A40186E6AF
:100F700094E00E946306E80EF91EC501B4010E94C8
:100F8000931F9B01AC01C301B2010E940B214B01D5
:100F90005C01D9CFC701CF911F910F91FF90EF90C6
:100FA000DF90CF90BF90AF909F908F907F906F9089
:100FB0005F904F9008956EEA71E00C945406CF92C2
:100FC000DF92EF92FF92CF93DF936C01990FEE08BF
:100FD000FF08F7FE21C06DE286E694E00E94DB0385
:100FE000EC0144275527BA014C195D096E097F09A8
:100FF0002AE086E694E00E946306C80FD91F86E6C1
:1010000094E00E94DB078C0F9D1FDF91CF91FF9032
:10101000EF90DF90CF9008952AE0B701A60186E611
:1010200094E00E946306EC01EACF0F931F93CF93E5
:10103000DF93EC010E9454068C01CE010E94DB0775
:10104000800F911FDF91CF911F910F9108950F9302
:101050001F93CF93DF93EC0188819981009759F01A
:101060002A813B812617370730F081E0DF91CF914D
:101070001F910F9108958B016F5F7F4F0E944E2348
:10108000009759F0998388831B830A832C813D81C3
:10109000232B59F7FC011082E8CF80E0E7CFEF92D5
:1010A000FF920F931F93CF93DF936115710541F466
:1010B00080E0DF91CF911F910F91FF90EF90089505
:1010C00041155105B1F07B01EC010C811D81040F2C
:1010D000151FB8010E942708882351F32881398100
:1010E0008C819D81B701820F931F0E941B241D8359
:1010F0000C8381E0DECFFB014481558160817181E9
:101100000C944F08CF93DF93EC018881998100976D
:1011100011F00E94C522198218821D821C821B8236
:101120001A82DF91CF910895CF93DF93EC01FB01F9
:1011300001900020E9F73197AF01461B570B0E9441
:101140004F08811103C0CE010E948208CE01DF91B9
:10115000CF910895CF93DF93EC01FB01448155813A
:10116000608171810E944F08811103C0CE010E94ED
:101170008208CE01DF91CF910895EF92FF920F93F5
:101180001F93CF93DF93EC017B018A01BA010E9488
:10119000270881110BC0CE010E948208CE01DF9189
:1011A000CF911F910F91FF90EF9008951D830C83B5
:1011B000B701888199810E941B24F0CFEF92FF92A2
:1011C0000F931F93CF93DF93CDB7DEB762970FB620
:1011D000F894DEBF0FBECDBF8C01CB01F8011182A8
:1011E000108213821282158214824AE09E012F5FC0
:1011F0003F4F7901B9010E94221DF70101900020A3
:10120000E9F73197AF014E195F09B701C8010E9494
:10121000BD0862960FB6F894DEBF0FBECDBFDF915A
:10122000CF911F910F91FF90EF900895EF92FF9251
:101230000F931F93CF93DF93CDB7DEB7E3970FB62E
:10124000F894DEBF0FBECDBF7C01CB01BA01F70120
:101250001182108213821282158214828E010F5F16
:101260001F4F22E044E00E94041D0097C9F0FC01DA
:1012700001900020E9F73197AF01481B590BBC01E1
:10128000C7010E94BD08E3960FB6F894DEBF0FBEFB
:10129000CDBFDF91CF911F910F91FF90EF900895F7
:1012A000C7010E948208EFCFFC01118210821382D5
:1012B000128215821482FB0101900020E9F7319718
:1012C000AF01461B570B0C94BD08FC018081918136
:1012D000009711F00C94C52208950C94C522AF928A
:1012E000BF92CF92DF92EF92FF920F931F93CF9313
:1012F000DF9300D000D0CDB7DEB78C016B017A014F
:10130000809164048333E9F45B016801C40ED51E47
:10131000C016D106A9F10E946C048FE00E947704E8
:10132000812F0E947704802F0E9477040F5F1F4F48
:1013300080E00E947704F50181935F010E946204BE
:10134000E7CF843369F50E946C0419830A838F2DDB
:101350008F778B83EC8264E070E0CE0101960E946F
:101360004804A70170E060E0C6010E941424E11463
:10137000F10421F0B701C6010E9448040E946204F2
:10138000C7010F900F900F900F90DF91CF911F9199
:101390000F91FF90EF90DF90CF90BF90AF900895A6
:1013A0000E946C040F3F110509F030F419820A8382
:1013B0001B8263E070E0D1CF17FD0BC019820A8356
:1013C00033E0169507953A95E1F7007E08600B83A8
:1013D000F0CFC80126E0969587952A95E1F7807EA3
:1013E00019830A830115104C18F480618B83E1CFB7
:1013F0008861FCCF1F93CF93DF931F92CDB7DEB7E9
:10140000182F80E591E00E940A01812F0E9441057A
:1014100027E0129FF0011124E85BFB4F228133810A
:10142000377041E050E0BE016F5F7F4F820F931F26
:101430000E946F0989810F90DF91CF911F910895CC
:10144000FC01808D843040F4218D328D232B21F0DE
:101450000E94FA0990E008958FEF9FEF0895CF93CF
:10146000DF93FC012485243028F08FEF9FEFDF917C
:10147000CF910895EC010190F081E02D0084F18579
:10148000E02D0995892B89F38C850E94FA0990E05B
:10149000EECFCF93DF931F92CDB7DEB741E050E0A0
:1014A000BE016F5F7F4F0E946F0989810F90DF91AE
:1014B000CF91089590E080E00C94490ACF93DF9398
:1014C000C4E1D0E00E945A0A882361F061E070E034
:1014D00080E090E00E94F7012197A1F780E0DF9182
:1014E000CF91089581E0FBCF1F93CF93DF9300D07E
:1014F000CDB7DEB760E372E080E090E00E94F701D4
:101500001FB7F89480913704811127C0EEE9F1E00C
:101510008491E2EBF1E09491E82FF0E0EE0FFF1FF1
:10152000EE59FE4FA591B491EC91E92321F461E0CD
:101530008AE00E94730161E08AE00E94A1018CB5FB
:1015400080618CBD8CB580648CBD61E08DE00E94B3
:10155000A10161E08BE00E94A101809137048F5FBF
:10156000809337041FBF80910001282F30E0F901DC
:10157000EC56FE4FE491F0E0EE0FFF1FE459FE4FF2
:10158000459154915093360440933504F901E85540
:10159000FE4FE491E093340461E00E94A1010E94B7
:1015A000620480E591E00E940A0184E38093640470
:1015B00080E80E942E050E945E0A882309F441C03B
:1015C00088E00E942E050E945A0A8830D1F580E1F9
:1015D0000E942E050E945A0A803199F580E00E94EF
:1015E0002E050E945A0A182F81112BC08FE190E01E
:1015F0000E94490A833029F580E48093380442E050
:101600006EE170E0812F0E948A0542E06FE170E098
:10161000812F0E948A051F5F143089F740E06EE138
:1016200070E0812F0E948A0540E06FE170E0812F19
:101630000E948A051F5F183089F781E08093650456
:1016400064C087E38093640480E80E942E050E94B2
:101650005E0A8823F9F088E00E942E050E945A0A4B
:101660008830C1F480E10E942E050E945A0A182F8A
:10167000803181F480E00E942E050E945A0A811177
:1016800009C089E390E00E94490A843019F410935C
:101690003804D3CF83E38093640480E80E942E054E
:1016A0000E945E0A882371F180E10E942E050E944B
:1016B0005A0A803139F582E10E942E050E945A0AA9
:1016C000823101F580E00E942E050E945A0A8111A4
:1016D00019C084E08093380415E51A8341E050E096
:1016E000BE016E5F7F4F8BE190E00E947E04198304
:1016F00041E050E0BE016F5F7F4F8AE190E00E94C1
:101700007E049BCF1092640480E00F900F90DF91D5
:10171000CF911F910895CF92DF92EF92FF920F9396
:101720001F93CF93DF93EC016B018A0179018091C4
:1017300065048823E9F180E591E00E940A0146E012
:1017400050E067E171E089E090E00E947E04BE0114
:101750006E5F7F4F44E050E08FE090E00E947E0497
:10176000B8016E5F7F4F44E050E081E090E00E945E
:101770007E04B7016E5F7F4F44E050E085E090E06B
:101780000E947E04F60182819381A481B5818093B9
:10179000230590932405A0932505B0932605DF919A
:1017A000CF911F910F91FF90EF90DF90CF90089510
:1017B0000E94740A882399F3BECF2091380430E048
:1017C000322F2227620F731F90E0982F8827860FF1
:1017D000971F0C94490ACF93C82F462F61E070E001
:1017E0000E948A0561E070E08C2F0E94DD0B811160
:1017F000F9CFCF910895CF93C82F80E591E00E9453
:101800000A0168E070E08C2FCF910C94EB0BCF9322
:10181000C82F80E591E00E940A0160E170E08C2F02
:10182000CF910C94EB0BCF93DF93EC01888D843038
:1018300020F40E94070C84E0888FDF91CF910895F7
:10184000CF93C82F80E591E00E940A0163E070E029
:101850008C2FCF910C94DD0BCF93DF93EC018C8513
:101860008430D0F40E94200C843189F0882379F0F0
:10187000883169F021E08C3159F4E881F9810084E4
:10188000F185E02DCE01099521E0892B09F420E0B6
:10189000822FDF91CF91089580E0FBCFCF92DF922E
:1018A000EF92FF92CF93DF93EC018C85843068F444
:1018B0000E94FB0B0E9429026B017C018C850E9417
:1018C000200C811109C084E08C87DF91CF91FF90BB
:1018D000EF90DF90CF90089561E070E080E090E0BD
:1018E0000E94F7010E942902AB01BC014C195D095D
:1018F0006E097F098D859E85B0E0A0E048175907E5
:101900006A077B07D8F28C850E94070CDCCFCF9347
:10191000FC01C08D80E591E00E940A0160E270E068
:101920008C2F0E94EB0B62E070E08C2F0E94DD0B8D
:1019300084FD16C062E070E08C2F0E94DD0B83FFF7
:101940000AC048E162E070E08C2F0E948A0580E0C6
:1019500090E0CF91089580E591E00E940A01E3CFE5
:1019600040E162E070E08C2F0E948A0581E0F0CFB8
:1019700080916504882349F080916404843351F098
:101980008733A9F090E080E008950E94740A8823CC
:10199000C9F3F2CF80E591E00E940A0185E390E06F
:1019A0000E94490A85FD0DC082E090E0089580E51F
:1019B00091E00E940A018EE290E00E94490A80FFB5
:1019C000F3CF81E090E00895DA01E0913804F0E08F
:1019D000FE2FEE27E60FF71F90E0982F8827A9012A
:1019E000BD018E0F9F1F0C946F098F929F92AF9233
:1019F000BF92CF92DF92EF92FF921F93CF93DF932C
:101A0000CDB7DEB72C970FB6F894DEBF0FBECDBFB3
:101A10002091640414E0222339F16B017C0180E5FC
:101A200091E00E940A015E0127E0A20EB11C45016F
:101A300010E063E070E0812F0E94DD0BF4018193E0
:101A40004F01882349F11F5F143099F710E0F50129
:101A500081915F018D31D9F08831C9F08A5182308E
:101A6000B0F01F5F143099F7812F2C960FB6F894C1
:101A7000DEBF0FBECDBFDF91CF911F91FF90EF90E2
:101A8000DF90CF90BF90AF909F908F90089560E1CE
:101A900070E0812F0E94EB0BA12EB12C83EE93E01E
:101AA0000197F1F742E870E060E0812F0E948A051B
:101AB0004FEF62E070E0812F0E948A05B601C114E9
:101AC000D10491F480911501909116010196811530
:101AD000F0EC9F0708F45CC0909316018093150109
:101AE0006091150170911601812F0E94750586E0A5
:101AF000E3E2F1E0DE01119601900D928A95E1F7A3
:101B0000F70183818F778C8384818D8385818E8398
:101B1000A7014E5F5F4F24E030E06CE070E0812F62
:101B20000E944F05B601812F0E94600526E030E03B
:101B3000AE014F5F5F4F66E070E0812F0E944F055E
:101B400061E070E0812F0E94EB0B27E02A9DC0012D
:101B50002B9D900D11249C01285B3B4F7901F901CD
:101B60001182108222E030E0AE01455F5F4F68E2F3
:101B700070E0812F0E94E40C8B859C859827892733
:101B80009827F701938382831682158214826CCF83
:101B900080E090ECA1CFCF92DF92EF92FF920F9373
:101BA0001F93CF93DF9300D000D000D0CDB7DEB726
:101BB0008C016B017A01FC01808D843010F40E944D
:101BC000070C80EA91E09A838983F60182819381F0
:101BD000A481B5818B839C83AD83BE83B701CE0185
:101BE00001960E94F50CF801808F8430A0F4F586F0
:101BF000E486128E118E81E026960FB6F894DEBF31
:101C00000FBECDBFDF91CF911F910F91FF90EF904D
:101C1000DF90CF90089580E0EFCFAF92BF92CF9248
:101C2000DF92EF92FF920F931F93CF93DF9300D039
:101C300000D000D0CDB7DEB7082F6B0180E591E072
:101C40000E940A019E012F5F3F4F7901590110E068
:101C500063E070E0812F0E94DD0BF50181935F014D
:101C6000882341F11F5F143099F710E0F70181914B
:101C70007F018D31D1F08831C1F08A518230A8F0D6
:101C80001F5F143099F7812F26960FB6F894DEBFA8
:101C90000FBECDBFDF91CF911F910F91FF90EF90BD
:101CA000DF90CF90BF90AF90089560E170E0812FFA
:101CB0000E94EB0BE12EF12C83EE93E00197F1F7FC
:101CC000402F70E060E0812F0E948A054FEF62E0B4
:101CD00070E0812F0E948A05B601CD2889F4809199
:101CE00015019091160101968115F0EC9F0798F16E
:101CF0009093160180931501609115017091160162
:101D0000812F0E94750561E070E0812F0E94EB0B2E
:101D100027E02E9DC0012F9D900D11249C01285B72
:101D20003B4F7901F9011182108222E030E0AE01CF
:101D30004B5F5F4F68E270E0812F0E94E40C8D8161
:101D40009E81982789279827F7019383828316829B
:101D50001582148298CF80E090ECCACFCF92DF92A8
:101D6000EF92FF921F93CF93DF93EC017B016A0107
:101D70008C85843048F40E94200C882319F08C85CF
:101D80000E94FB0B84E08C87F70182819381A48100
:101D9000B5810097A105B10551F490E080E0DF9195
:101DA000CF911F91FF90EF90DF90CF9008958F3FDC
:101DB0009F4FAF4FBF4F89F380916404811103C0DF
:101DC00084E08C87EACF70E060E081E20E940D0E33
:101DD000182F8C87843008F780E591E00E940A0173
:101DE000A7014E5F5F4F24E030E06CE070E0812F90
:101DF0000E944F05B601812F0E94600564E070E0EB
:101E0000812F0E94EB0B0E9429026B017C018C85C3
:101E10000E94200C873109F18C31F9F0882309F4F4
:101E2000BCCF0E942902AB01BC014C195D096E09AF
:101E30007F098D859E85B0E0A0E084179507A607F1
:101E4000B70738F061E070E080E090E00E94F701B1
:101E5000DECF8C850E94070CB3CF81E090E09FCF4E
:101E60000F931F93CF93DF93EC018B01888D843008
:101E700010F40E94070C80916404811107C094E063
:101E8000988FDF91CF911F910F910895B80182E053
:101E90000E940D0E888F843030F41D870C871A8EB7
:101EA000198E81E0EECF80E0ECCF7F928F929F92EF
:101EB000AF92BF92CF92DF92EF92FF920F931F9358
:101EC000CF93DF9300D0CDB7DEB7782E8B014A01D8
:101ED000590122E030E0AE014F5F5F4F64E270E0F5
:101EE0000E94E40CE980FA80FE24EF24FE24E00E38
:101EF000F11E9701377040916404072D10E04333C1
:101F000009F042C0085F1F4F102F0027110F110F5B
:101F1000110FC901800F911F4733C9F1A9014A0D63
:101F20005B1D4130584098F160E078E06B01C21AC7
:101F3000D30AA601B4010E947E04A5014C195D09D3
:101F4000B4016C0D7D1DC8010E947E04EA0CFB1CCF
:101F5000F982EA8222E030E0AE014F5F5F4F64E237
:101F600070E0872D0E944F050F900F90DF91CF9169
:101F70001F910F91FF90EF90DF90CF90BF90AF90A7
:101F80009F908F907F900895005F1F4FBDCFA50158
:101F9000B401DACFEF92FF921F93CF93DF9300D07B
:101FA000CDB7DEB7182F22E030E0AE014F5F5F4FB4
:101FB00060E270E00E94E40CE980FA80FE24EF24E5
:101FC000FE2422E030E0AE014F5F5F4F60E270E040
:101FD000812F0E94E40C89819A819827892798276C
:101FE000E816F90689F487E0189FF0011124E85BF0
:101FF000FB4FF582E482C7010F900F90DF91CF91E4
:102000001F91FF90EF9008957C01DBCF1F93CF933A
:10201000DF93182F80E591E00E940A01812F0E9432
:10202000CA0FEC0163E070E0812F0E94DD0B873165
:1020300021F08C3111F0D0E0C0E0CE01DF91CF91E2
:102040001F910895CF93DF93EC018C85843060F469
:102050000E94200C873111F08C3131F48C850E9464
:1020600006108115984088F3DF91CF910895FC0107
:102070008485843010F40C94061090E080E008957C
:102080009F92AF92BF92CF92DF92EF92FF920F9307
:102090001F93CF93DF938C015B01942EE52EFC01FF
:1020A000C688D788F08C80E591E00E940A018F2DC8
:1020B0000E94CA0FC92DDE2D8C179D0708F4EC0174
:1020C0009E01A501B6018F2D0E94550FF80186894A
:1020D00097898C0F9D1F978B868BCE01DF91CF91B7
:1020E0001F910F91FF90EF90DF90CF90BF90AF9036
:1020F0009F9008958F929F92AF92BF92CF92DF925E
:10210000EF92FF920F931F93CF936C015B018A01B3
:10211000FC01C485C430F0F57A014130584018F014
:10212000E12C88E0F82E80E591E00E940A018C2FD6
:102130000E94CA0F4C0163E070E08C2F0E94DD0BFF
:10214000873111F08C3149F58E149F0460F380E5DE
:1021500091E00E940A019701A50170E060E08C2FD8
:102160000E94550F60E270E08C2F0E94EB0B62E042
:1021700070E08C2F0E94DD0B84FD17C063E070E0DF
:102180008C2F0E94DD0B81110BC081E090E0F601E5
:102190009383828310E000E010C0F12CE12CD7CFB4
:1021A00080E591E00E940A01E2CF40E162E070E048
:1021B0008C2F0E948A05EF2841F3C801CF911F910F
:1021C0000F91FF90EF90DF90CF90BF90AF909F90D6
:1021D0008F900895FF920F931F93CF93DF9300D0BA
:1021E000CDB7DEB7F82E22E030E0AE014F5F5F4F93
:1021F00066E270E00E94E40C09811A811027012731
:10220000102722E030E0AE014F5F5F4F66E270E0E2
:102210008F2D0E94E40C89819A819827892798271D
:102220000817190749F4C8010F900F90DF91CF915B
:102230001F910F91FF9008958C01E3CF1F93CF93CF
:10224000DF93182F87E0189FE0011124C85BDB4F54
:1022500088819981009761F480E591E00E940A01EC
:10226000812F0E94EA102E81821B91099983888315
:10227000DF91CF911F910895FC018485843010F483
:102280000C941E1190E080E008954F925F927F922F
:102290008F929F92AF92BF92CF92DF92EF92FF9276
:1022A0000F931F93CF93DF9300D0CDB7DEB7782E77
:1022B0006B014A01A82EB12C27E0829FC001112496
:1022C000FC01E85BFB4F7F010081118180E591E01B
:1022D0000E940A010815190554F4872D0E94EA107E
:1022E000F70126818C01021B11091183008301155E
:1022F000110529F563E070E0872D0E94DD0B843124
:1023000059F0882349F001E010E08C3111F410E01D
:1023100000E0119501951109C8010F900F90DF9110
:10232000CF911F910F91FF90EF90DF90CF90BF90D2
:10233000AF909F908F907F905F904F900895801600
:1023400091060CF4840187E08A9DF0018B9DF00DCD
:102350001124E85BFB4FE280F380C114D10451F1FA
:102360002701F7E05F22872D0E944105840D951D0E
:1023700020916404273309F453C09801240D351DBE
:102380002130384008F44CC020E038E0490184187E
:102390009508A401B6010E946F092601480C591C3A
:1023A0006801C818D908872D0E944105A601B2010D
:1023B0000E946F09E00EF11E87E08A9DF0018B9D5F
:1023C000F00D1124E85BFB4FF382E2822081318122
:1023D000201B310B318320838681800F912F911D2B
:1023E0008A3F910510F4232BF1F487E08A9DF001D8
:1023F0008B9DF00D1124E85BFB4F1682F982EA8277
:1024000022E030E0AE014F5F5F4F68E270E0872D61
:102410000E944F0560E470E0872D0E94EB0B7CCF9B
:10242000A801B601C5CF868377CFCF93DF93FC0198
:10243000218D328D2115310529F48FEF9FEFDF912A
:10244000CF910895EC01808D4217530708F0A90140
:102450000E9445111816190684F7298D3A8D281BFC
:10246000390B3A8F298FEBCF0F931F93CF93DF93C5
:102470001F92CDB7DEB7FC01218D328D232B41F4A5
:102480008FEF9FEF0F90DF91CF911F910F910895E4
:102490008C0141E050E0BE016F5F7F4FFC01808DF9
:1024A0000E944511181619065CF7F801818D928D6E
:1024B0000197928F818F898190E0E4CFCF93DF9352
:1024C0001F92CDB7DEB741E050E0BE016F5F7F4F96
:1024D000FC0184850E9445111816190634F489817F
:1024E00090E00F90DF91CF9108958FEF9FEFF9CF9C
:1024F000FC018485843010F40C94451190E080E058
:1025000008950F931F93CF93DF9300D0CDB7DEB71D
:10251000FC0124852430E0F48C0180E591E00E94E8
:102520000A0122E030E0AE014F5F5F4F60E170E0F2
:10253000F80184850E94E40C89819A819827892773
:1025400098270F900F90DF91CF911F910F910895D1
:1025500090E080E0F6CF0F931F93CF93DF9300D0EE
:10256000CDB7DEB7FC0124852430E0F48C0180E592
:1025700091E00E940A0122E030E0AE014F5F5F4F20
:1025800064E070E0F80184850E94E40C89819A81FE
:102590009827892798270F900F90DF91CF911F914F
:1025A0000F91089590E080E0F6CF0F931F93CF93A3
:1025B000DF93CDB7DEB728970FB6F894DEBF0FBE16
:1025C000CDBF8C01D80159964D915C915A97411518
:1025D000510551F0ED91FC91048CF58DE02D70E0EA
:1025E00060E0C8010995EECFF801808D0E941E11B0
:1025F000892BB1F148E050E0BE016F5F7F4FD801F9
:1026000058968C910E94451118161906F4F4D801B9
:10261000509684E0FE01319601900D928A95E1F783
:102620008D8190E0982F88272E81820F911DF801CF
:10263000958B848B8F81282F30E0322F222788853D
:10264000820F932F911D928F818F28960FB6F89449
:10265000DEBF0FBECDBFDF91CF911F910F910895C7
:1026600090E080E0F2CF4F925F926F927F928F92D4
:102670009F92AF92BF92CF92DF92EF92FF920F9311
:102680001F93CF93DF93CDB7DEB763970FB6F89460
:10269000DEBF0FBECDBF7C016B013A01FB0120E024
:1026A00090E080E06AE03191332309F461C040EDAD
:1026B000430F4A3008F04DC0689FA001699F500D3C
:1026C0001124CA01C097830F911D37FD9A958F3F42
:1026D000910549F340F3F70142815381648175818B
:1026E00080912F0590913005A0913105B091320570
:1026F000481759076A077B0709F40DC28701085F6D
:102700001F4F0E9429026F7077277C5FC8010E94CB
:10271000300F813009F004C280EA91E09A83898306
:10272000F70182819381A481B5818B839C83AD83E2
:10273000BE8345E350E0BE016F5F7F4FC8010E943A
:10274000DF05892BA9F5D12CC12CC8010E94130CDF
:1027500017C03E3209F0BFCF233009F4BCCFD301FC
:10276000A20FB11D12968C932F5F90E080E09BCF5B
:10277000233009F0B0CFF3018583CC24C394D12C4E
:10278000C60163960FB6F894DEBF0FBECDBFDF91D2
:10279000CF911F910F91FF90EF90DF90CF90BF905E
:1027A000AF909F908F907F906F905F904F90089523
:1027B0000E942902F7017783668342E050E0B70167
:1027C0006A5F7F4FC8010E94401081E090E09A83C9
:1027D000898342E050E0BE016F5F7F4FC8010E94D5
:1027E000401080E091E09A83898342E050E0BE018E
:1027F0006F5F7F4FC8010E9440101A82198242E029
:1028000050E0BE016F5F7F4FC8010E94401042E060
:1028100050E0BE016F5F7F4FC8010E94401042E050
:1028200050E0BE016F5F7F4FC8010E94401056010B
:10283000F6018081882301F16501F60181912F0164
:10284000882311F08E32B1F446018A189B081814BF
:10285000190474F48D8641E050E0BE01635F7F4F40
:10286000C8010E944010A401B501C8010E94401097
:102870005201DECF6201E1CF1D8641E050E0BE0192
:10288000635F7F4FC8010E944010C12CDD24D394A8
:10289000DA82C98242E050E0BE016F5F7F4FC8011B
:1028A0000E944010DA82C98242E050E0BE016F5FB0
:1028B0007F4FC8010E944010C8010E94870C892BDD
:1028C00009F441CFF3E0AF2EB12C230122E0420EF8
:1028D000511CD4C0F7014281538164817581808D80
:1028E000918DA28DB38D481759076A077B0709F0B0
:1028F00008C1848D958DC59709F003C181A192A16E
:102900005DEFC52EDD24DA940C970CF4ADC04CE0DD
:1029100050E0BE016F5F7F4FC8010E9415128B818E
:102920009C819827892798279A8B898BF701468164
:10293000578129813A814217530709F0E7C097FF71
:10294000E5C08F7092703BEFC32EDD24DA94892BA3
:1029500009F08AC06F8078847624672476242AEF71
:10296000C22EDD24DA946114710409F47DC0D12CE7
:10297000C12C8D819E81982789279827C816D90652
:10298000F8F441E050E0BE01635F7F4FC8010E9450
:1029900015124D85442331F050E070E060E0C8012D
:1029A0000E9415128D858111ECCF44E050E070E05B
:1029B00060E0C8010E941512FFEFCF1ADF0AD9CFDD
:1029C000912C812C41E050E0BE016D5E7F4FC8012B
:1029D0000E9415124B89842F807C09F06CC044231F
:1029E00031F050E070E060E0C8010E9415128B8960
:1029F0008111E8CF42E050E0BE01615F7F4FC80126
:102A00000E94151242E050E0BE01635F7F4FC80193
:102A10000E94151244E050E070E060E0C8010E949E
:102A2000151242E050E0BE016F5E7F4FC8010E9468
:102A300015128F85988949895A898115914009F025
:102A400043C0CD84DE84DC24CD24DC2481E0C816A0
:102A5000D104D1F54115544009F04AC044E050E09A
:102A6000B201C8010E94151221E0A21AB10809F4AE
:102A70006CCEFFEFCF16DF0609F067CE0E94290269
:102A80003B014C01C8010E94D512181619060CF41E
:102A900021CF0E94290266197709880999096938A6
:102AA00073418105910548F562E370E080E090E0B4
:102AB0000E94F701E7CF41E050E070E060E0C8011C
:102AC0000E9415121B8A93CF54274527542770E084
:102AD00060E0C8010E941512FFEF8F1A9F0A681468
:102AE000790409F06FCF96EFC92EDD24DA94BCCFBC
:102AF000E7EFCE2EDD24DA94B7CFCC24CA94DC2CB9
:102B0000B3CF6EEFC62EDD24DA94AECF4CEFC42ED9
:102B1000DD24DA94A9CF8EEFC82EDD24DA9430CEEE
:102B2000D12CC12C2DCECF92DF92EF92FF920F933A
:102B30001F93CF93DF93CDB7DEB7AF970FB6F8945F
:102B4000DEBF0FBECDBF7C016A0100EA11E01A832F
:102B500009831C861B8688EE93E0A0E0B0E08D8799
:102B60009E87AF87B88B8DE291E09A878987188F0F
:102B70000F8B198E1A8E1B8E1C8E84E089A31BA7C7
:102B80000AA71CA61DA61EA61FA68091230590912C
:102B90002405A0912505B09126058EA39FA3A8A783
:102BA000B9A78B839C83AD83BE8318861F82AE0139
:102BB000465D5F4FCE0101960E943313813091052F
:102BC000B1F4D701ED91FC910488F589E02D1DA3A6
:102BD0000CA38CA59DA5AEA5BFA58EA39FA3A8A75A
:102BE000B9A7A601BE016C5D7F4FC7010995AF96DD
:102BF0000FB6F894DEBF0FBECDBFDF91CF911F910E
:102C00000F91FF90EF90DF90CF900895CF92DF92D9
:102C1000EF92FF920F931F93CF93DF93CDB7DEB761
:102C2000AF970FB6F894DEBF0FBECDBF8C016B011E
:102C30007A0180EA91E09A8389831B821C821D823B
:102C40001E821C861B8648EE53E060E070E04D87D4
:102C50005E876F87788B2DE231E03A872987988FDE
:102C60008F8B198E1A8E1B8E1C8E24E029A39BA796
:102C70008AA71CA61DA61EA61FA6D8011C968C916D
:102C8000843060F40E94200C882321F0F8018485B0
:102C90000E94FB0B84E0D8011C968C938091230545
:102CA00090912405A0912505B09126058EA39FA3A0
:102CB000A8A7B9A78B839C83AD83BE8318861F8288
:102CC000AE01465D5F4FB601CE0101960E943313FF
:102CD0000097C1F0D801ED91FC910684F785E02DB5
:102CE00080EA91E09DA38CA38CA59DA5AEA5BFA570
:102CF0008EA39FA3A8A7B9A7A701BE016C5D7F4FB4
:102D0000C8010995AF960FB6F894DEBF0FBECDBFD0
:102D1000DF91CF911F910F91FF90EF90DF90CF90B7
:102D20000895EF92FF920F931F93CF93DF9300D0FC
:102D300000D0CDB7DEB78C017B01FB0184858430E8
:102D4000A8F080EA91E0F8019183808312821382D7
:102D500014821582C8010F900F900F900F90DF9191
:102D6000CF911F910F91FF90EF90089580E591E032
:102D70000E940A0124E030E0AE014F5F5F4F6CE03B
:102D800070E0F70184850E94E40C80EA91E0F8018C
:102D90009183808389819A81AB81BC818283938373
:102DA000A483B583D7CF1F920F920FB60F92112431
:102DB0002F933F938F939F93AF93BF938091400442
:102DC00090914104A0914204B091430430913F049A
:102DD00023E0230F2D3758F50196A11DB11D209337
:102DE0003F048093400490934104A0934204B09325
:102DF00043048091440490914504A0914604B0910D
:102E000047040196A11DB11D80934404909345048D
:102E1000A0934604B0934704BF91AF919F918F91C7
:102E20003F912F910F900FBE0F901F90189526E89D
:102E3000230F0296A11DB11DD2CF1F920F920FB684
:102E40000F9211242F933F934F935F936F937F9330
:102E50008F939F93AF93BF93EF93FF9386E694E096
:102E60000E94B903FF91EF91BF91AF919F918F9114
:102E70007F916F915F914F913F912F910F900FBE76
:102E80000F901F9018951F920F920FB60F9211245A
:102E90002F938F939F93EF93FF93E0917604F0919C
:102EA00077048081E0917C04F0917D0482FD1BC059
:102EB000908180917F048F5F8F73209180048217AF
:102EC00041F0E0917F04F0E0EA59FB4F958F809349
:102ED0007F04FF91EF919F918F912F910F900FBEE3
:102EE0000F901F9018958081F4CFCF92DF92EF92D0
:102EF000FF92E6E6F4E01382128288EEC82E83E0A9
:102F0000D82EE12CF12CC482D582E682F7828CE5A2
:102F100091E09183808385EC90E09587848784ECB1
:102F200090E09787868780EC90E0918B808B81EC96
:102F300090E0938B828B82EC90E0958B848B86EC77
:102F400090E0978B868B118E128E138E148EE3E099
:102F5000F5E080EA91E091838083128213821482EB
:102F60001582E9E0F5E09183808312821382148256
:102F70001582EFE0F5E09183808312821382148240
:102F80001582E5E1F5E09183808312821382148239
:102F90001582EBE1F5E09183808312821382148223
:102FA0001582E7E2F5E09183808312821382148216
:102FB0001582E1E2F5E0918380831282138214820C
:102FC0001582EDE2F5E091838083128213821482F0
:102FD0001582E3E3F5E091838083128213821482E9
:102FE0001582E9E7F5E091838083128213821482CF
:102FF0001582A6E6B5E022E015962C93159726E1FA
:1030000016962C931697EAEAF1E0E4911796EC9362
:103010001797E6E9F1E0E4911896EC93189740E8E9
:103020005EE360E070E01D964D935D936D937C933D
:103030005097E0E6F5E09183808350EC528348EAB4
:10304000438331E0348321EB2583EAE5F5E0918386
:10305000808328E02283238324832583E4E5F5E02D
:10306000918380835283438334833583EEE4F5E098
:10307000918380838FEF828383838483158261EBC6
:1030800071E088E495E00E945409E9E3F5E01382D9
:103090001282C482D582E682F7828EE691E0918325
:1030A000808384E0848788EE93E096878587FF900D
:1030B000EF90DF90CF900895CF93DF93CDB7DEB739
:1030C00068970FB6F894DEBF0FBECDBF789484B575
:1030D000826084BD84B5816084BD85B5826085BD14
:1030E00085B5816085BD80916E00816080936E00A2
:1030F0001092810080918100826080938100809194
:103100008100816080938100809180008160809344
:1031100080008091B10084608093B1008091B00004
:1031200081608093B00080917A00846080937A00FF
:1031300080917A00826080937A0080917A00816029
:1031400080937A0080917A00806880937A00109250
:10315000C100E0917604F091770482E08083E091F1
:103160007204F09173041082E0917404F09175047C
:103170008FEC808310927E04E0917A04F0917B04BE
:1031800086E08083E0917804F09179048081806109
:103190008083E0917804F091790480818860808355
:1031A000E0917804F0917904808180688083E091D7
:1031B0007804F091790480818F7D808362E0809132
:1031C0006B050E94A1010E942902605D7740810980
:1031D000910960936F0570937005809371059093CA
:1031E000720587E38093780562E083E00E94A10185
:1031F00061E087E00E94A10161E08AE00E94A101F4
:1032000060E087E00E94730161E08AE00E94730140
:1032100066EC71E086E694E00E94150869ED71E0C5
:1032200086E694E00E9415088AE08093000180EA17
:1032300091E09A83898340915005509151056091A6
:103240005205709153054B835C836D837E83988711
:103250008F834091560550915705609158057091A4
:10326000590549875A876B877C879E878D87409150
:103270005C0550915D0560915E0570915F054F871B
:10328000588B698B7A8B9C8B8B8B8091620590918C
:103290006305A0916405B09165058D8B9E8BAF8B06
:1032A000B88F9E012F5F3F4FAE01495F5F4FBE0158
:1032B000635F7F4FCE0143960E948B0B68EE73E0F5
:1032C00080E090E00E94F701E0916404E353E53070
:1032D00030F4F0E0ED5AFE4F8081811107C06EEEB0
:1032E00071E086E694E00E941508FFCF68E072E086
:1032F00086E694E00E945406E0916404E353E530CE
:1033000080F4F0E0ED5AFE4F808160E272E082309E
:1033100051F066E272E0833031F06AE172E08130B0
:1033200011F06CE272E086E694E00E94150864E316
:1033300072E086E694E00E9454060E94B80C813048
:10334000910509F448C008F43FC0029709F446C04B
:1033500069E472E086E694E00E94540680EA91E017
:103360009A8389831B821C821D821E8280E591E0E4
:103370000E940A0144E050E0BE016D5F7F4F8FE084
:1033800090E00E946F0966E674E0CE0101960E940B
:10339000AF0686E694E00E94DB0740E0242E40E082
:1033A000342E0E943502882341F080916C058C30C8
:1033B00009F46FC0B0F48B3069F1C12CD12C20EC32
:1033C000E22E2FE7F22E50C06CE272E086E694E027
:1033D0000E941508BDCF62E472E0F8CF65E472E0A8
:1033E000F5CF8551823048F710916805612F70E064
:1033F000762F662766277F7780916905682B90E096
:1034000080E00E94931F2DEC3CEC4CEC5DE30E94AD
:10341000F41F5BC06091680570E090E080E00E945E
:10342000931F6B017C011091690517FF0AC0AC0165
:103430009B0160E070E080E89FEB0E940B216B0134
:103440007C011F70612F70E090E080E00E94951F6A
:103450002DEC3CEC4CEC5DE30E94F41FA7019601BF
:103460000E940C216B017C010E943502882351F0DF
:1034700080916C058B3030F08D3080F18551823039
:1034800008F4C6C0412C512C90EC692E9FE7792E90
:1034900043C010916805612F70E090E080E00E94C9
:1034A000931F6B017C01609169056F7070E090E083
:1034B00080E00E94951F2DEC3CEC4CEC5DE30E94FB
:1034C000F41FA70196010E940C216B017C0117FFDC
:1034D000CBCFF7FAF094F7F8F094C6CF6091670578
:1034E00070E090E080E00E94951F2DEC3CEC4CECED
:1034F0005DE30E94F41F4B015C016091660570E082
:1035000090E080E00E94951F9B01AC01C501B401D1
:103510000E940C212B013C0120E420937C0080912F
:103520007A00806480937A0080917A0086FDFCCFD7
:10353000A0907800B0907900E9E7F1E08491EBEA9F
:10354000F1E00491E7E9F1E01491112309F472C06C
:1035500081110E944A01E12FF0E0EE0FFF1FE657B4
:10356000FE4FA591B4918C91082391E080E009F47D
:1035700090E0092F182F809101019091020101978D
:10358000B9F401151105A1F481E090E020913D040A
:1035900030913E04232B11F090E080E090933E04A4
:1035A00080933D0468EC70E080E090E00E94F701B9
:1035B0001093020100930101A7019601C701B60112
:1035C0000E941E22811108C0A3019201C301B20111
:1035D0000E941E22882389F164E572E086E694E069
:1035E0000E94150860E087E00E94730160ED77E0BB
:1035F00080E090E00E94F7012114310409F4D1CE5B
:103600000E94A503882309F4CCCE0E940000C9CEF5
:10361000609166057091670576276727762790E0A9
:1036200080E00E94931F2DEC3CEC4CEC5DE30E948B
:10363000F41F70CF10E000E09ECF00913D04109188
:103640003E0461E00115110509F460E087E00E9485
:1036500073010E9429022091390430913A0440916B
:103660003B0450913C04621B730B840B950B683830
:1036700073418105910508F4BFCF0E942902609330
:10368000390470933A0480933B0490933C0466E6BB
:1036900072E086E694E00E94150860E872E086E633
:1036A00094E00E94540642E0C701B6010E94F90668
:1036B00086E694E00E94DB076EE872E086E694E01E
:1036C0000E94540642E0C301B2010E94F90686E658
:1036D00094E00E94DB0769E972E086E694E00E94CC
:1036E0005406C5010E94DF076FE972E086E694E0A8
:1036F0000E945406C8010E94DF0768EA72E086E66D
:1037000094E00E945406C8010E94DF0780903D04A7
:1037100090903E0468EB72E0CE010D960E94540931
:10372000B701A601CE0101960E9416096AEB72E06C
:10373000CE0107960E945409BE016F5F7F4FCE01F4
:1037400007960E94AA0869EC72E00E949408BC01E6
:10375000CE010D960E947B08CE0107960E94650956
:10376000CE0101960E946509B301A201CE01019626
:103770000E9416096BEC72E0CE0107960E94540974
:10378000BE016F5F7F4FCE0107960E94AA0869ECC9
:1037900072E00E949408BC01CE010D960E947B0845
:1037A000CE0107960E946509CE0101960E94650927
:1037B000B501CE0101960E94DE0867ED72E0CE01F0
:1037C00007960E945409BE016F5F7F4FCE01079696
:1037D0000E94AA0869EC72E00E949408BC01CE0124
:1037E0000D960E947B08CE0107960E946509CE01C6
:1037F00001960E946509B401CE0101960E94DE087F
:1038000063EE72E0CE0107960E945409BE016F5F1D
:103810007F4FCE0107960E94AA0869EC72E00E94D1
:103820009408BC01CE010D960E947B08CE0107963C
:103830000E946509CE0101960E946509B801CE017A
:1038400001960E94DE0865EF72E0CE0107960E94A5
:103850005409BE016F5F7F4FCE0107960E94AA08F0
:10386000BC01CE010D960E947B08CE0107960E94F6
:103870006509CE0101960E94650941E050E065E0CE
:1038800073E0CE010D960E944F080E94B80C02977B
:1038900059F467E073E086E694E00E941508CE01D3
:1038A0000D960E946509A8CE68E373E086E694E071
:1038B0000E94150840E550E063E071E089E395E07F
:1038C0000E94061665E573E0892B09F490C061E754
:1038D00073E0CE0101960E94540968E475E0CE01C0
:1038E00001960E94AA086FE773E00E949408FC0109
:1038F000448155816081718189E395E00E947A104D
:1039000089E395E00E94DB07CE0101960E946509DC
:1039100063E973E089E395E00E9415086BEA73E0C0
:1039200089E395E00E9415086FEB73E089E395E069
:103930000E9415086EED73E089E395E00E9415087A
:1039400060EF73E089E395E00E94540649895A8943
:1039500070E060E02AE089E395E00E94630689E375
:1039600095E00E94DB0789E395E00E94DB07498927
:103970005A896D857E8589E395E00E947A100E94C0
:1039800029026B017C0189E395E00E943C11892B9F
:1039900091F40E9429026C197D098E099F096838EB
:1039A00073418105910538F46AE070E080E090E0B1
:1039B0000E94F701E8CF61E074E086E694E00E949F
:1039C000150889E395E00E943C11892B51F089E3A9
:1039D00095E00E945E12682F86E694E00E94DB0369
:1039E000F0CF86E694E00E94DB076BE174E086E6A8
:1039F00094E00E94150889E395E00E944E0C4FCF99
:103A000088E495E00C946509EF920F931F93CF9390
:103A1000DF93E80134E047FD34E1042E000C550B40
:103A200057FF03C0519541955109E32E022F242FD2
:103A3000AE010E94471DCE01DF91CF911F910F91E2
:103A4000EF900895BB274A3031F4992322F4BDE268
:103A5000909581959F4F0C942E1DBB27FB015527F8
:103A6000AA27880F991FAA1FA41710F0A41B8395DB
:103A70005051B9F7A05DAA3308F0A95DA193009752
:103A800079F7B111B1931192CB010C947E1FA9E08B
:103A9000B0E0EDE4FDE10C94B8206A01F22EB02E06
:103AA000102FFBE3AF2EA01608F41BE31F5F012FBE
:103AB00027E0AE014F5F5F4F0E94A61EBC018981C7
:103AC000982F9970913009F43FC09BE2E1FC04C04B
:103AD0009E2D9170E0FC3AC05E2D5071E82FE87089
:103AE00083FF46C084E0911101C083E0EF2DE81B05
:103AF0008F1508F0E0E0D6018E2F20E2552351F11A
:103B0000992329F0D6019C93C60101966C01960178
:103B10002D5F3F4FE2FE24C08EE4D6018C9391E4EA
:103B200011969C93119712968C93D9018E2F90E247
:103B300081111BC0E20FF32FF11D10828EEF9FEF5A
:103B40002996ECE00C94D4209DE2C6CF90E2C4CF3D
:103B50002D9381508111FCCFCE0ED11CE0E0D0CF4F
:103B60008EE6D6018C9391E6DBCF9D938150E0CF1A
:103B7000482F447082FF3DC084E0911101C083E072
:103B80008F1510F4EF2DE81BD6018E2F20E2552360
:103B900009F1992329F0D6019C93C60101966C0185
:103BA00096012D5F3F4FE2FE1BC089E4D6018C9346
:103BB0008EE411968C93119786E412968C93D9011A
:103BC0008E2F90E2882309F4B5CF9D938150FACFD0
:103BD0002D9381508111FCCFCE0ED11CE0E0D9CFC6
:103BE00089E6D6018C938EE611968C93119786E622
:103BF000E4CF9B0177FF02C030E020E0A1E0B0E01D
:103C0000911102C0B0E0A0E0F9013196AE0FBF1FE4
:103C10008B2C912CBB2009F461C05401EFEFAE1A3C
:103C2000BE0AAA0DBB1DFA161B0619F014F04F2D83
:103C30004A1B511188C0E3FC59C07601A42FB0E2A1
:103C4000A1114FC0C40ED11C992309F45BC040E000
:103C5000D6011196F60190836D01552309F448C0F1
:103C6000012F060F9A81582F507184FF03C09133A2
:103C700009F4015010160CF047C0093008F008E0B4
:103C8000EEE2FE2E5B01A01AB108850191948194A9
:103C900091082F3F320729F4D601FC92F6013196A4
:103CA0006F016217730794F1021713077CF5DB01AC
:103CB000A21BB30BAA24A394B12CAC0EBD1EAA0D5B
:103CC000BB1D11968C9121503109D60111962815F2
:103CD0003905F4F0F60180836D01DBCFB12CA12C06
:103CE000A0CFF701B1937F01A150AACF9111B0CF1E
:103CF000D601942F50E302C05D9391509111FCCFF7
:103D0000C40ED11C40E0ACCF01E0BACF80E3DBCFE2
:103D10006217730731F4963388F4953311F4552301
:103D200069F0F6018083FD01842F90E2811108C0C3
:103D3000A40FB11D1C9290E080E002CF81E3F1CF8F
:103D400091938150F3CF911183CF8ACF283008F01F
:103D500027E03327DA01990F311D87FD9160009626
:103D60006105710539F432602E5F3D9330E32A9589
:103D7000E1F708959F3F30F080387105610509F043
:103D80003C5F3C5F3D93913008F08068911DDF936C
:103D9000CF931F930F93FF92EF92192F987F9695D1
:103DA000E92F96959695E90FFF27EE53FF4F992738
:103DB0003327EE24FF24A701E70105900894079418
:103DC00028F4360FE71EF81E491F511D660F771F96
:103DD000881F991F0694A1F70590079428F4E70E11
:103DE000F81E491F561FC11D770F881F991F661F98
:103DF0000694A1F70590079428F4F80E491F561F62
:103E0000C71FD11D880F991F661F771F0694A1F742
:103E10000590079420F4490F561FC71FD81F990F0C
:103E2000661F771F881F0694A9F784911095177055
:103E300041F0D695C79557954795F794E7941A950D
:103E4000C1F7E8E6F0E06894159015913591659119
:103E5000959105907FE27395E118F10A430B560B9B
:103E6000C90BD009C0F7E10CF11E431F561FC91F33
:103E7000D01D7EF4703311F48A95E6CFE89401509A
:103E800030F0080F0AF40027021708F4202F2395BA
:103E9000022F7A3328F079E37D932A95E9F710C051
:103EA0007D932A9589F6069497956795379517958A
:103EB0001794E118F10A430B560BC90BD00998F07F
:103EC00023957E9173957A3308F070E37C932013E9
:103ED000B8F77E9170617D9330F0839571E37D93A7
:103EE00070E32A95E1F71124EF90FF900F911F9155
:103EF000CF91DF91992787FD90950895DC01FC0112
:103F0000672F71917723E1F7329704C07C916D930D
:103F100070836291AE17BF07C8F308950E94D01F47
:103F200008F481E00895E89409C097FB3EF4909569
:103F30008095709561957F4F8F4F9F4F9923A9F082
:103F4000F92F96E9BB279395F69587957795679511
:103F5000B795F111F8CFFAF4BB0F11F460FF1BC055
:103F60006F5F7F4F8F4F9F4F16C0882311F096E9E8
:103F700011C0772321F09EE8872F762F05C0662396
:103F800071F096E8862F70E060E02AF09A95660F4F
:103F9000771F881FDAF7880F9695879597F9089508
:103FA000990F0008550FAA0BE0E8FEEF161617064A
:103FB000E807F907C0F012161306E407F50798F0B2
:103FC000621B730B840B950B39F40A2661F0232BCB
:103FD000242B252B21F408950A2609F4A140A69547
:103FE0008FEF811D811D08950E9407200C94782079
:103FF0000E946A2038F00E94712020F0952311F071
:104000000C9461200C94672011240C94AC200E9425
:10401000892070F3959FC1F3950F50E0551F629F63
:10402000F001729FBB27F00DB11D639FAA27F00D11
:10403000B11DAA1F649F6627B00DA11D661F829F38
:104040002227B00DA11D621F739FB00DA11D621F1D
:10405000839FA00D611D221F749F3327A00D611D3A
:10406000231F849F600D211D822F762F6A2F11241C
:104070009F5750409AF0F1F088234AF0EE0FFF1F4F
:10408000BB1F661F771F881F91505040A9F79E3FA6
:10409000510580F00C9461200C94AC205F3FE4F358
:1040A000983ED4F3869577956795B795F795E795FC
:1040B0009F5FC1F7FE2B880F911D9695879597F905
:1040C000089597F99F6780E870E060E008959FEF9A
:1040D00080EC089500240A9416161706180609069F
:1040E000089500240A94121613061406050608956E
:1040F000092E0394000C11F4882352F0BB0F40F4F6
:10410000BF2B11F460FF04C06F5F7F4F8F4F9F4F35
:10411000089557FD9058440F551F59F05F3F71F0B7
:104120004795880F97FB991F61F09F3F79F087951E
:104130000895121613061406551FF2CF4695F1DFA7
:1041400008C0161617061806991FF1CF8695710537
:10415000610508940895E894BB2766277727CB016B
:1041600097F908952F923F924F925F926F927F92AC
:104170008F929F92AF92BF92CF92DF92EF92FF9277
:104180000F931F93CF93DF93CDB7DEB7CA1BDB0B23
:104190000FB6F894DEBF0FBECDBF09942A883988C8
:1041A00048885F846E847D848C849B84AA84B984CF
:1041B000C884DF80EE80FD800C811B81AA81B981DB
:1041C000CE0FD11D0FB6F894DEBF0FBECDBFED01EF
:1041D0000895A1E21A2EAA1BBB1BFD010DC0AA1F48
:1041E000BB1FEE1FFF1FA217B307E407F50720F060
:1041F000A21BB30BE40BF50B661F771F881F991FDB
:104200001A9469F760957095809590959B01AC0123
:10421000BD01CF0108955058BB27AA270E94232132
:104220000C9478200E946A2038F00E94712020F0BF
:1042300039F49F3F19F426F40C9467200EF4E095AE
:10424000E7FB0C946120E92F0E94892058F3BA17EC
:10425000620773078407950720F079F4A6F50C949C
:10426000AB200EF4E0950B2EBA2FA02D0B01B90157
:1042700090010C01CA01A0011124FF27591B99F0DC
:10428000593F50F4503E68F11A16F040A22F232FE8
:10429000342F4427585FF3CF469537952795A79538
:1042A000F0405395C9F77EF41F16BA0B620B730BDF
:1042B000840BBAF09150A1F0FF0FBB1F661F771F50
:1042C000881FC2F70EC0BA0F621F731F841F48F405
:1042D000879577956795B795F7959E3F08F0B0CF8E
:1042E0009395880F08F09927EE0F97958795089575
:1042F0000E948C210C9478200E94712058F00E941A
:104300006A2040F029F45F3F29F00C94612051119C
:104310000C94AC200C9467200E94892068F39923A8
:10432000B1F3552391F3951B550BBB27AA276217B1
:104330007307840738F09F5F5F4F220F331F441FBE
:10434000AA1FA9F335D00E2E3AF0E0E832D09150F2
:104350005040E695001CCAF72BD0FE2F29D0660FDF
:10436000771F881FBB1F261737074807AB07B0E822
:1043700009F0BB0B802DBF01FF2793585F4F3AF028
:104380009E3F510578F00C9461200C94AC205F3F67
:10439000E4F3983ED4F3869577956795B795F795AE
:1043A0009F5FC9F7880F911D9695879597F9089596
:1043B000E1E0660F771F881FBB1F62177307840732
:1043C000BA0720F0621B730B840BBA0BEE1F88F741
:1043D000E09508950E94912088F09F5798F0B92F9A
:1043E0009927B751B0F0E1F0660F771F881F991F2A
:1043F0001AF0BA95C9F714C0B13091F00E94AB2001
:10440000B1E008950C94AB20672F782F8827B85F10
:1044100039F0B93FCCF3869577956795B395D9F781
:104420003EF490958095709561957F4F8F4F9F4F8B
:1044300008950E94D01F08F48FEF08950E94D01FA6
:10444000880B990B0895EE0FFF1F0590F491E02D56
:1044500009940F931F93CF93DF938230910510F44B
:1044600082E090E0E0918105F091820530E020E06B
:10447000B0E0A0E0309799F42115310509F44AC065
:10448000281B390B24303105D8F58A819B816115B1
:10449000710589F1FB0193838283FE0111C0408184
:1044A00051810281138148175907E0F048175907D5
:1044B00099F4109761F012960C93129713961C932F
:1044C0003296CF01DF91CF911F910F910895009304
:1044D000810510938205F4CF2115310551F0421763
:1044E000530738F0A901DB019A01BD01DF01F80192
:1044F000C1CFEF01F9CF9093820580938105CDCF95
:10450000FE01E20FF31F8193919322503109398309
:104510002883D7CF20917F0530918005232B41F44C
:1045200020911F01309120013093800520937F0559
:1045300020911D0130911E012115310541F42DB747
:104540003EB74091210150912201241B350BE0918F
:104550007F05F0918005E217F307A0F42E1B3F0BB7
:104560002817390778F0AC014E5F5F4F24173507E5
:1045700048F04E0F5F1F5093800540937F05819355
:1045800091939FCFF0E0E0E09CCFCF93DF93009733
:10459000E9F0FC01329713821282A0918105B0915B
:1045A0008205ED0130E020E01097A1F420813181F7
:1045B000820F931F20917F053091800528173907BE
:1045C00009F061C0F0938005E0937F05DF91CF9102
:1045D0000895EA01CE17DF07E8F54A815B819E0165
:1045E00041155105B1F7E901FB83EA8349915991DE
:1045F000C40FD51FEC17FD0761F4808191810296ED
:10460000840F951FE90199838883828193819B831D
:104610008A83F0E0E0E012968D919C9113970097C9
:10462000B9F52D913C911197CD010296820F931F00
:1046300020917F05309180052817390739F630978A
:1046400051F51092820510928105B0938005A093D8
:104650007F05BCCFD383C28340815181840F951FD6
:10466000C817D90761F44E5F5F4F88819981480F61
:10467000591F518340838A819B81938382832115B3
:10468000310509F0B0CFF0938205E09381059ECF0C
:10469000FD01DC01C0CF13821282D7CFB0E0A0E0D1
:1046A000E4E5F3E20C94B4208C01009751F4CB01C3
:1046B0000E9429228C01C801CDB7DEB7E0E10C943D
:1046C000D020FC01E60FF71F9C0122503109E217B0
:1046D000F30708F49DC0D901CD91DC911197C6175D
:1046E000D70798F0C530D10530F3CE01049786176F
:1046F000970708F3C61BD70B2297C193D1936D93ED
:104700007C93CF010E94C522D6CF5B01AC1ABD0AB3
:104710004C018C0E9D1EA0918105B0918205512CFB
:10472000412CF12CE12C109731F580917F0590916F
:1047300080058815990509F05CC04616570608F0F3
:1047400058C080911D0190911E01009741F48DB7D2
:104750009EB74091210150912201841B950BE817CF
:10476000F90708F055C0F0938005E0937F05F90143
:1047700071836083A0CF8D919C91119712966C905C
:10478000129713967C901397A815B90559F56C01EB
:1047900042E0C40ED11CCA14DB0420F1AC014A195A
:1047A0005B09DA011296159780F062827382518359
:1047B0004083D9016D937C93E114F10471F0D7012A
:1047C0001396FC93EE93129776CF22968C0F9D1F33
:1047D000F90191838083F301EFCFF0938205E09399
:1047E000810569CF4816590608F42C017D01D301D3
:1047F0009ACFCB010E9429227C01009749F0AE019B
:10480000B8010E940B24C8010E94C522870153CF22
:1048100010E000E050CFFB01DC0102C001900D92DE
:1048200041505040D8F70895DC0101C06D934150CC
:104830005040E0F70895FB01DC0101900D9200204B
:10484000E1F7089510E0CFEDD0E004C0FE010E9432
:0E48500023222196C03ED107C9F7F894FFCF6E
:10485E000A01007468696E6773626F6172642E6319
:10486E006C6F75640000C0DEADBEEFFEEE0000831F
:10487E0005800001005E00000000000000A705405A
:10488E0010350611010D013412200A300FCB0D1315
:10489E000CDF059315870CD51215122E061E061A5F
:1048AE00061606010200000300000000DB033B03B6
:1048BE0068032804990377038B0300000000C805E2
:1048CE007A10371022103C115E122F0AAE0E061609
:1048DE0078124E0C2C0C4B0653066D0948064606F4
:1048EE00BD053C06AB129116811238060000000081
:1048FE00AF066E616E00696E66006F7666000D0A19
:10490E00003079447732484B537553355558506BB8
:10491E0075786F7651005374617274696E67207387
:10492E00797374656D2E2E2E005374617274696ED8
:10493E00672045746865726E65742E2E2E00457460
:10494E006865726E657420736869656C64206E6F3D
:10495E007420666F756E640048617264776172656B
:10496E00207374617475733A2000573531303000FE
:10497E00573532303000573535303000556E6B6E4E
:10498E006F776E004C696E6B207374617475733A39
:10499E0020004F4E004F4646004C6F63616C20491D
:1049AE00503A2000444854323220726561642066C9
:1049BE0061696C6564002D2D2D2D2D2D204E4F44DB
:1049CE004520322044415441202D2D2D2D2D2D00DA
:1049DE0054656D70657261747572653A2000487524
:1049EE006D69646974793A20004C44523A20004D46
:1049FE006F74696F6E3A200053797374656D20532E
:104A0E0074617475733A20007B002274656D706555
:104A1E00726174757265223A002C002268756D6998
:104A2E0064697479223A00226C647256616C756501
:104A3E00223A00226D6F74696F6E446574656374FB
:104A4E006564223A002273797374656D53746174D0
:104A5E007573223A007D0045746865726E65742028
:104A6E006C696E6B206973204F46462E20536B691E
:104A7E007070696E67205468696E6773426F6172F9
:104A8E00642073656E642E00436F6E6E6563746989
:104A9E006E6720746F205468696E6773426F61721F
:104AAE00642E2E2E00436F6E6E656374696F6E20DA
:104ABE00746F20736572766572206661696C6564C9
:104ACE0000504F5354202F6170692F76312F002FD5
:104ADE0074656C656D6574727920485454502F312D
:104AEE002E3100486F73743A207468696E67736272
:104AFE006F6172642E636C6F756400557365722DF1
:104B0E004167656E743A2041726475696E6F004339
:104B1E006F6E74656E742D547970653A2061707085
:104B2E006C69636174696F6E2F6A736F6E00436F89
:104B3E006E6E656374696F6E3A20636C6F73650099
:104B4E00436F6E74656E742D4C656E6774683A2093
:104B5E00002D2D2D2D2D20485454502052455350AC
:104B6E004F4E5345202D2D2D2D2D002D2D2D2D2D20
:104B7E0020454E4420524553504F4E5345202D2D27
:044B8E002D2D2D009C
:00000001FF
